:020000040800F2
:10000000000002208D560108F9160008FF160008AE
:10001000051700080B170008111700080000000062
:10002000000000000000000000000000E191000856
:100030001717000800000000C19300080994000889
:10004000DD560108DD560108DD560108DD560108C0
:10005000DD560108DD560108DD560108DD560108B0
:10006000DD560108DD560108DD560108DD560108A0
:10007000DD560108DD560108DD560108DD56010890
:10008000DD560108DD560108DD560108DD56010880
:10009000DD560108DD560108DD560108DD56010870
:1000A000DD560108DD560108DD560108DD56010860
:1000B000DD560108DD56010825170008DD56010848
:1000C000DD560108DD560108DD560108DD56010840
:1000D000DD560108DD560108391700084D170008E4
:1000E000DD560108DD560108DD560108DD56010820
:1000F000DD560108DD560108DD560108DD56010810
:10010000DD560108DD560108DD560108DD560108FF
:10011000DD560108DD560108DD560108DD560108EF
:10012000DD560108DD560108DD560108DD560108DF
:10013000DD56010861170008DD560108DD5601088B
:10014000DD560108DD560108DD560108DD560108BF
:10015000DD560108DD560108DD560108DD560108AF
:10016000DD560108DD560108DD560108DD5601089F
:10017000DD560108DD560108DD56010800000000CB
:04018000DD5601083F
:1001900010B5054C237833B9044B13B10448AFF3C1
:1001A00000800123237010BD240100200000000006
:1001B000B46A010808B5034B1BB103490348AFF308
:1001C000008008BD0000000028010020B46A01087A
:1001D000034613F8012B002AFBD1181A0138704787
:1001E00053B94AB9002908BF00281CBF4FF0FF319E
:1001F0004FF0FF3000F076B9ADF1080C6DE904CE98
:1002000000F006F8DDF804E0DDE9022304B07047F1
:100210002DE9F047089E0D4604468846002B4DD137
:100220008A42944668D9B2FA82F252B101FA02F3D4
:10023000C2F1200120FA01F10CFA02FC41EA0308A4
:1002400094404FEA1C41B8FBF1F71FFA8CFE01FB0A
:10025000178807FB0EF0230C43EA084398420AD99B
:100260001CEB030307F1FF3580F01E81984240F23A
:100270001B81023F63441B1AB3FBF1F001FB1033F7
:1002800000FB0EFEA4B244EA0344A6450AD91CEBC7
:10029000040400F1FF3380F00981A64540F2068195
:1002A000644402380021A4EB0E0440EA07401EB16A
:1002B0000023D440C6E90043BDE8F0878B4208D94B
:1002C000002E00F0EE800021C6E900050846BDE8DA
:1002D000F087B3FA83F100294AD1AB4202D38242BC
:1002E00000F2FC80841A65EB030301209846002E7F
:1002F000E2D0C6E90048DFE702B9FFDEB2FA82F2D7
:10030000002A40F09180A1EB0C0001214FEA1C472C
:100310001FFA8CFEB0FBF7F307FB1300250C45EA30
:1003200000450EFB03F0A84208D91CEB050503F1BC
:10033000FF3802D2A84200F2CE8043462D1AB5FB08
:10034000F7F007FB10550EFB00FEA4B244EA05448B
:10035000A64508D91CEB040400F1FF3502D2A645DE
:1003600000F2B6802846A4EB0E0440EA03409EE764
:10037000C1F120078B4022FA07FC4CEA030C25FA56
:1003800007FA4FEA1C49BAFBF9F820FA07F309FB10
:1003900018AA8D401FFA8CFE1D4300FA01F308FBDA
:1003A0000EF02C0C44EA0A44A04202FA01F20BD9E6
:1003B0001CEB040408F1FF3A80F08880A04240F270
:1003C0008580A8F102086444241AB4FBF9F009FB03
:1003D000104400FB0EFEADB245EA0444A64508D920
:1003E0001CEB040400F1FF356CD2A6456AD9023833
:1003F000644440EA0840A0FB0295A4EB0E04AC4222
:10040000C846AE4656D353D0002E69D0B3EB08028F
:1004100064EB0E0422FA01F304FA07F71F43CC4001
:10042000C6E90074002147E70CFA02FCC2F1200182
:1004300025FA01F34FEA1C4720FA01F195400D43DC
:10044000B3FBF7F107FB11331FFA8CFE280C40EACF
:10045000034001FB0EF3834204FA02F408D91CEBBB
:10046000000001F1FF382FD283422DD902396044B8
:10047000C01AB0FBF7F307FB1300ADB245EA004525
:1004800003FB0EF0A84208D91CEB050503F1FF3869
:1004900016D2A84214D9023B6544281A43EA014106
:1004A00038E73146304607E72F46E4E61846F9E6D6
:1004B0004B45A9D2B9EB020865EB0C0E0138A3E756
:1004C0004346EAE7284694E74146D1E7D0467BE732
:1004D0006444023847E7023B65442FE7084606E7D5
:1004E0003146E9E6704700BF2DE9F04399B000AF0F
:1004F00078600B467B806B461E46002387F85F3092
:100500007B88591C4B1EBB650A46002390469946C2
:100510004FF000024FF000034FEAC90343EA58735B
:100520004FEAC8020A46002314461D464FF0000257
:100530004FF00003EB0043EA5473E2000B4607332D
:10054000DB08DB00ADEB030D6B4600337B656D4BC9
:1005500093F82230052B00F2CE8001A252F823F04E
:10056000790500088B050008BD050008CF050008C7
:1005700001060008810600080B21634800F0D0FD49
:10058000604B012283F82220B6E07B681B782F2B7A
:1005900004D85C4B012283F82220ADE01122002117
:1005A000584815F0DFF87B881A467968554815F0E9
:1005B000CBF8544B022283F822209DE00B215348B4
:1005C00000F0AEFD4F4B032283F8222094E07B68BD
:1005D0001B782F2B04D84B4B032283F822208BE06F
:1005E000112200214A4815F0BDF87B881A46796827
:1005F000474815F0A9F8434B042283F822207BE0FA
:10060000102244493F4815F08FF80346002B1FD1B4
:10061000102241493E4815F087F80346002B17D1B8
:1006200007F10C03374A3D49184615F0BBF803465D
:1006300087F84F3097F84F309AB207F10C03114604
:10064000184600F06DFD2F4B052283F8222053E061
:1006500007F10C032B4A3249184615F0A3F803465C
:1006600087F84F3097F84F309AB207F10C031146D4
:10067000184600F055FD234B002283F822203BE072
:100680007B683B650AE07B685A1C7A6097F85F20BC
:10069000511C87F85F1019787B6D99547B885A1E1E
:1006A0007A80002BEFD17B887A6D0021D1543B6D8D
:1006B0001B782F2B04D8134B052283F822201BE034
:1006C0007B8801331A46796D164800F027FF0246F1
:1006D00007F10C031449184615F064F8034687F82F
:1006E0004F3097F84F309AB207F10C031146184675
:1006F00000F016FD00E000BFB54600BF6437BD4600
:10070000BDE8F083E4010020046D0108106D0108CC
:10071000F501002070000020810000201C6D010800
:10072000406D010860000020686D010880B483B04E
:1007300000AF78600B467B8000BF0C37BD4680BCA5
:100740007047000080B594B000AF78600B467B80A6
:1007500007F10C030949184615F024F8034687F8F9
:100760004F3097F84F309AB207F10C0311461846F4
:1007700000F0D6FC00BF5037BD4680BD946D010827
:1007800080B485B000AF78600B467B800023FB739C
:1007900008E0FB7B0A4A0021D154FB7B084A134442
:1007A00000225A74FB7B5A1CFA73102BF1D1044BB4
:1007B000002283F8222000BF1437BD4680BC70475A
:1007C000E401002080B594B000AF786039603B68E8
:1007D00004331B681B78312B0AD13B6808331B6834
:1007E0001B78303BDBB21A460121374803F098FFF3
:1007F0003B6804331B681B78322B0AD13B680833F3
:100800001B681B78303BDBB21A4680212E4803F070
:1008100087FF3B6804331B681B78332B0BD13B6885
:1008200008331B681B78303BDBB21A464FF480411B
:10083000254803F075FF3B6804331B681B78302B99
:1008400038D13B6808331B681B78303BDBB21A4653
:1008500001211D4803F064FF3B6808331B681B78C7
:10086000303BDBB21A468021174803F059FF3B6842
:1008700008331B681B78303BDBB21A464FF48041CB
:10088000114803F04DFF15E03B681A1D3A601A68E5
:1008900007F10C030D49184614F084FF034687F84E
:1008A0004F3097F84F309AB207F10C0311461846B3
:1008B00000F036FC7B685A1E7A60002BE4D10023DE
:1008C00018465037BD4680BD00040240B46D010893
:1008D00080B594B000AF78603960002387F84F305E
:1008E00007F10C031549184614F05CFF034687F81E
:1008F0004E3097F84E309AB207F10C031146184665
:1009000000F00EFC0AE097F84F300D4A0021D15458
:1009100097F84F300A4A134400225A7497F84F3020
:100920005A1C87F84F20102BEDD1054B002283F87D
:100930002220002318465037BD4680BDBC6D0108FB
:10094000E4010020B0B5A6B000AF786039607B68E4
:10095000022B50D007F10C035649184614F022FF21
:10096000034687F8933097F893309AB207F10C0357
:100970001146184600F0D4FB0023C7F8943020E05D
:100980004D4B1968D7F8942013465B0013449B0025
:100990000B445A6807F10C034849184614F002FF4B
:1009A000034687F8933097F893309AB207F10C0317
:1009B0001146184600F0B4FBD7F894300133C7F85D
:1009C00094303D4B9B68D7F894209A42D8DB07F1CE
:1009D0000C033B49184614F0E5FE034687F89330B4
:1009E00097F893309AB207F10C031146184600F0BD
:1009F00097FB00235AE00023C7F894303DE02E4BCC
:100A00001968D7F8942013465B0013449B000B44ED
:100A1000C7F88C30D7F88C305C68274B5B680433A0
:100A20001D68254B5B6804331B681846FFF7D0FB35
:100A300003461A462946204600F0BAFC0346002B1E
:100A400016D1D7F88C309A6807F10C031D49184667
:100A500014F0A8FE034687F8933097F893309AB2C3
:100A600007F10C031146184600F05AFB00231DE065
:100A7000D7F894300133C7F894300F4B9B68D7F800
:100A800094209A42BBDB07F10C030F49184614F07F
:100A900089FE034687F8933097F893309AB207F1AE
:100AA0000C031146184600F03BFB0023184698370C
:100AB000BD46B0BDDC6D010860000020B46D0108CA
:100AC000F46D0108206E0108286E010880B483B01F
:100AD00000AF78603960002318460C37BD4680BCF3
:100AE000704780B483B000AF786039600023184647
:100AF0000C37BD4680BC704780B483B000AF7860CF
:100B00003960002318460C37BD4680BC704780B45E
:100B100083B000AF78603960002318460C37BD46BB
:100B200080BC704780B483B000AF78603960002328
:100B300018460C37BD4680BC7047000080B500AF3A
:100B400002F04AFE00F02CF800F0C4F800F098F82B
:100B500000F06CF801220B490B4804F07AF90122ED
:100B60000A490B4804F075F907F0C4FA094A002154
:100B7000094807F04DFB0346084A136007F0ECFAFA
:100B8000FEE700BFCC01002084010020CD01002041
:100B90004001002080950108ED0D0008C8010020EB
:100BA00080B592B000AF07F118033022002118463B
:100BB00014F0D8FD3B1D00221A605A609A60DA607A
:100BC0001A610123BB610123FB6102233B634FF4E4
:100BD00080037B630823BB63F023FB6302233B6436
:100BE00005237B6407F11803184602F057FE0346FD
:100BF000002B01D000F02EF90F237B600223BB6095
:100C00000023FB604FF4A0533B614FF480537B61A2
:100C10003B1D0321184603F08FF80346002B01D03B
:100C200000F018F900BF4837BD4680BD80B500AF61
:100C3000114B124A1A60104B4FF4E1325A600E4BBE
:100C400000229A600C4B0022DA600B4B00221A61E2
:100C5000094B0C225A61084B00229A61064B002274
:100C6000DA61054804F0A8F80346002B01D000F033
:100C7000F1F800BF80BD00BF4001002000440040EB
:100C800080B500AF114B124A1A60104B4FF4E1329D
:100C90005A600E4B00229A600C4B0022DA600B4B1C
:100CA00000221A61094B0C225A61084B00229A61FA
:100CB000064B0022DA61054804F07EF80346002B5B
:100CC00001D000F0C7F800BF80BD00BF8401002044
:100CD0000048004080B58CB000AF07F11C03002233
:100CE0001A605A609A60DA601A610023BB613C4B5B
:100CF0001B6B3B4A43F004031363394B1B6B03F03C
:100D00000403BB61BB6900237B61354B1B6B344A19
:100D100043F080031363324B1B6B03F080037B6152
:100D20007B6900233B612E4B1B6B2D4A43F0010373
:100D300013632B4B1B6B03F001033B613B690023E7
:100D4000FB60274B1B6B264A43F002031363244BC3
:100D50001B6B03F00203FB60FB680023BB60204BAE
:100D60001B6B1F4A43F0080313631D4B1B6B03F0FF
:100D70000803BB60BB6800237B60194B1B6B184AE0
:100D800043F040031363164B1B6B03F040037B607F
:100D90007B68002244F28101124803F0C1FC4FF449
:100DA0000053FB614FF488133B6200237B6207F121
:100DB0001C0319460C4803F015FB44F28103FB6148
:100DC00001233B6200237B620023BB6207F11C030B
:100DD0001946044803F006FB00BF3037BD4680BD0E
:100DE00000380240000402400008024080B592B082
:100DF00000AF786001F01CFA094813F01FFC0246AE
:100E000007F108030749184614F0CCFC06491720DF
:100E100000F026F801228021044803F081FCFEE75F
:100E2000903700204C6E010894000020000402401E
:100E300080B582B000AF78607B681B68044A93423B
:100E400001D102F0EBFC00BF0837BD4680BD00BFFA
:100E50000008004080B400AF72B600BFFEE700009B
:100E600090B583B000AF03463960FB800A4AFB8827
:100E7000D385094A3B6814460FCB84E80F00074A24
:100E80000021074807F0C4F90346034A936100BFF5
:100E90000C37BD4690BD00BF08020020A495010894
:100EA000FD0E000880B582B000AF78600B46FB7085
:100EB00013463B80FB78002B1AD13B88002B17D1BF
:100EC0000D4B93F82830012B09D10B4B022283F8EC
:100ED0002820094B9B6800210020984708E0064B1A
:100EE0005B697A689A4203D1034B032283F8282076
:100EF00000BF0837BD4680BD0802002080B584B021
:100F000000AF7860012004F021FE0346354A5362A9
:100F1000344B00225A85334B00229A85314B0022F4
:100F20005A61314A0021102008F0ECFB03462D4A9B
:100F300013612C4B1B69002B04D12A4B042283F82C
:100F400028204BE0274B1B69264AD28D00211846EA
:100F500008F078FC0346FB7397F90F30002B04D0A0
:100F6000204B042283F8282038E01E4B1B69FF2108
:100F7000184608F09FFC1D4A00211D4807F048F95B
:100F80000346184AD3611B4A00211B4807F040F969
:100F90000346144A1362134B012283F82820114B95
:100FA0001B6907F108021146184608F0AFFC03461A
:100FB000FB7397F90F30002BF1D10A4B5B69002BC3
:100FC00003D1BB68074A5361E9E7BB68184608F0DC
:100FD0000BFFBB68184608F00FFCE0E71037BD4672
:100FE00080BD00BF08020020A50E0008C8950108BA
:100FF000FD0F0008EC950108A910000880B586B027
:1010000002AF7860264B5B69FB60FB68002B04D164
:101010000A23184605F0D4FE40E0214B5B6A4FF0EE
:10102000FF31184605F09EF91D4B93F82830022B2E
:1010300010D11B4B5B8D002B0CD0194B5B8D1A46CE
:101040000023009301231749F86808F025FE144B8C
:1010500000225A85124B586A00230022002104F016
:101060007DFE0F4B93F82830032B04D00A2318463B
:1010700005F0A6FED1E700BF094BDB680021002088
:101080009847074B00225A61054B012283F828201C
:10109000F86808F0A9FEF86808F0AEFBB2E700BFF8
:1010A000080200203802002080B586B000AF7860CA
:1010B0001A4B93F82830022B03D1184B5B69002B95
:1010C00003D1642005F07CFE26E0144B5B6907F138
:1010D00010021146184608F067FD0346FB7597F9A4
:1010E0001730002BE4D13B6907F10A0207F10C012C
:1010F00018460AF0DBFAFB687A891146184600F0B8
:1011000065F83B6918460AF01BFB0346002BEADA38
:101110003B6918460AF0AAFACAE700BF0802002095
:1011200080B584B000AF78600B467B800023FB6005
:10113000254B5B6A002B01D1002340E0224B93F842
:101140002830022B01D0002339E01F4B5B6A4FF09F
:10115000FF31184605F006F916E0FB687A6813447B
:10116000194A528D11461A78174B0B4483F83020D8
:10117000154B5B8D01339AB2134B5A85FB680133D3
:10118000FB607B88013B7B807B88002B04D00E4B6F
:101190005B8DB3F5806FE0D30B4B586A00230022C0
:1011A000002104F0DBFD7B88002B03D00A231846C6
:1011B00005F006FE7B88002BC7D1FB689BB2184662
:1011C0001037BD4680BD00BF0802002080B588B042
:1011D00000AF78603960FF23FB75FB23BB75FE23EE
:1011E0007B757B683B613B68FB815A4B5B68002BDE
:1011F00006D1584B1B68FA89114638699847A5E013
:101200000023FB830023BB830023BB618EE0514B93
:101210009B8D002B0AD1BB693A6913441B78FA7D78
:101220009A4203D0BB8B0133BB837CE0494B9B8D3F
:10123000002B23D1BB693A6913441B78FA7D9A428B
:101240001CD1BB8B002B07D0424B1B68FA8B396932
:101250000A44B98B10469847BB693A6913443D4A22
:10126000928D11461A783B4B0B4483F83024394B4E
:101270009B8D01339AB2374B9A8554E0354B9B8D49
:10128000012B1FD1BB693A6913441B78BA7D9A427E
:1012900018D8BB693A6913441B787A7D9A4211D3F6
:1012A000BB693A6913442B4A928D11461A78294B2F
:1012B0000B4483F83024274B9B8D01339AB2254B86
:1012C0009A8530E0234B9B8D022B2CD13B69013357
:1012D0001B78BA7D9A4226D83B6901331B787A7D08
:1012E0009A4220D3BB693A6913441A4A928D114637
:1012F0001A78184B0B4483F83024164B9B8D01331E
:101300009AB2144B9A85134B5B68124A928D114620
:10131000114898470F4B00229A85BB699BB2013355
:10132000FB830023BB83BB690133BB61FB89BA69C3
:101330009A42FFF66CAFBB8B002B07D0054B1B68A6
:10134000FA8B39690A44B98B1046984700BF203799
:10135000BD4680BD080200203806002080B485B05C
:1013600000AF786039607B68002B02D16FF0020318
:1013700019E00023FB6008E0FB687A6813441B78DF
:10138000002B07D0FB680133FB60FA683B689A4288
:10139000F2DB00E000BF3A68FB689A4202D14FF0EE
:1013A000FF3300E0FB6818461437BD4680BC704729
:1013B00080B487B000AFF860B9607A6000237B61C9
:1013C000FB68002B02D0BB68002B13D16FF0020327
:1013D00024E0FB685A1CFA601A78BB68591CB96093
:1013E0001B789A4202D001237B610AE0FB681B78DC
:1013F000002B05D07B685A1E7A60002BE9D100E0F3
:1014000000BF7B68002B02DA4FF0FF3306E0BB68B9
:101410001B78002B01D001237B617B6918461C37A8
:10142000BD4680BC704780B485B000AF0346B9604C
:101430007A60FB7308E0BB685A1CBA601B78FA7BC1
:101440009A4201D1012305E07B685A1E7A60002B85
:10145000F1D1002318461437BD4680BC704780B5D3
:1014600086B000AFF860B9607A603B60FB68002B23
:1014700002D16FF002034CE0FB681B68002B02D125
:101480006FF0020345E07B68002B02D14FF0FF3381
:101490003FE0FB681B687B610BE07B68013B7B6086
:1014A0007B68002B02D14FF0FF3332E07B690133C0
:1014B0007B617B691B783A68B9681846FFF7B3FF10
:1014C0000346002BE9D1FB687A691A6000233B616F
:1014D00012E07B691B78002B19D07B68013B7B6095
:1014E0007B68002B02D14FF0FF3312E07B690133A0
:1014F0007B613B6901333B617B691B783A68B96862
:101500001846FFF790FF0346002BE2D000E000BF33
:101510003B6918461837BD4680BD000080B58CB0C9
:1015200000AFF860B9607A60FB68002B02D16FF001
:101530000203A6E07968B868FFF710FFB861BB69DD
:10154000002B02DC4FF0FF339BE0BB690133BB6132
:10155000BB683B610023FB620023BB62002387F86A
:1015600023304FE03A69BB68D31ABA69D21A07F13F
:10157000100001234549FFF772FF78627B6A002B58
:1015800001DA7B6A7DE07B6A002B36DDBB6A002BCB
:1015900001D17B6ABB6297F82330002B08D1FB682E
:1015A0005A68FB6A591CF9629B0013443A691A6035
:1015B0000023FB6114E03A69FB6913441B780122A4
:1015C00033491846FFF72FFF0346002B05D097F845
:1015D000233083F0010387F82330FB690133FB617B
:1015E000FA697B6A9A42E6DB97F82330002B04D134
:1015F0003A697B6A134400221A703A697B6A0133A4
:1016000013443B613A69BB68D31ABA699A42A9DCB0
:1016100097F82330002B02D06FF0030331E0002352
:101620007B6227E0FB6819687A6A13465B00134403
:101630009B000B447B617B695868FB685B681B6897
:10164000BA6A1946FFF7B4FE0346002B0FD17B6937
:101650001B68002B08D07B691B68FA68526811462A
:10166000F86A984703460CE06FF0040309E07B6AD0
:1016700001337B62FB689B687A6A9A42D2DB6FF027
:10168000010318463037BD4680BD00BF8C6E01088F
:10169000906E010880B584B000AF78607B68124A14
:1016A00093421CD1114B1B78FB7301220F490E484A
:1016B00003F0CFFB0E4B1B68002B10D00C4B1868AF
:1016C00007F10F010023012204F046FC0346012B21
:1016D00005D0084B1B6843F48033064A136000BFF3
:1016E0001037BD4680BD00BF40010020CD01002065
:1016F000440600204806002080B400AFFEE780B416
:1017000000AFFEE780B400AFFEE780B400AFFEE7B5
:1017100080B400AFFEE780B400AF00BFBD4680BC20
:101720007047000080B500AF024803F069F900BFC0
:1017300080BD00BF4C06002080B500AF024803F01A
:10174000B9FB00BF80BD00BF4001002080B500AFE5
:10175000024803F0AFFB00BF80BD00BF8401002042
:1017600080B500AF024801F092FA00BF80BD00BF13
:101770003837002080B582B000AF00237B60124B69
:101780005B6C114A43F4804353640F4B5B6C03F46E
:1017900080437B607B6800233B600B4B1B6C0A4AD9
:1017A00043F080531364084B1B6C03F080533B6081
:1017B0003B6800220F216FF0010002F0E8FD00BF3E
:1017C0000837BD4680BD00BF0038024080B58CB0F0
:1017D00000AF786007F11C0300221A605A609A601B
:1017E000DA601A617B681B683A4A934234D100235D
:1017F000BB61394B1B6C384A43F400331364364BDE
:101800001B6C03F40033BB61BB6900237B61324B6B
:101810001B6B314A43F0080313632F4B1B6B03F020
:1018200008037B617B696023FB6102233B62002329
:101830007B620323BB620723FB6207F11C0319468B
:10184000264802F0CFFD00220521262002F09FFD50
:10185000262002F0B8FD39E07B681B68204A9342DD
:1018600034D100233B611C4B1B6C1B4A43F4802387
:101870001364194B1B6C03F480233B613B69002309
:10188000FB60154B1B6B144A43F008031363124BA8
:101890001B6B03F00803FB60FB684FF44073FB61B4
:1018A00002233B6200237B620323BB620723FB62AC
:1018B00007F11C031946094802F094FD0022052196
:1018C000272002F064FD272002F07DFD00BF3037A5
:1018D000BD4680BD0044004000380240000C02407C
:1018E0000048004080B58EB000AF78600023FB62F6
:1018F0000023BB620023FB60334B1B6C324A43F076
:1019000004031364304B1B6C03F00403FB60FB689F
:1019100007F1100207F114031146184602F052FCB9
:101920003B6AFB62FB6A002B03D102F007FC786381
:1019300004E002F003FC03465B007B637B6B234AFD
:10194000A2FB03239B0C013BBB62214B214A1A6083
:101950001F4B40F2E732DA601D4ABB6A53601C4BF2
:1019600000221A611A4B00229A60194B00229A61D8
:10197000174802F07EFF034687F8333097F833307C
:10198000002B1BD1124802F0CDFF034687F83330FD
:1019900097F83330002B11D11E2002F014FD7B6824
:1019A0000F2B08D8002279681E2002F0F0FC0A4AAA
:1019B0007B68136002E0012387F8333097F83330F7
:1019C00018463837BD4680BD0038024083DE1B43D1
:1019D0004C06002000080040A400002080B58EB016
:1019E00000AF786007F1240300221A605A609A6001
:1019F000DA601A617B681B68594A934240F0AC80F8
:101A000000233B62574B1B6B564A43F00073136332
:101A1000544B1B6B03F000733B623B6A0023FB617A
:101A2000504B1B6B4F4A43F0806313634D4B1B6B52
:101A300003F08063FB61FB690023BB61494B1B6BB7
:101A4000484A43F000631363464B1B6B03F000638B
:101A5000BB61BB6900237B61424B1B6B414A43F076
:101A6000040313633F4B1B6B03F004037B617B692F
:101A700000233B613B4B1B6B3A4A43F0010313636A
:101A8000384B1B6B03F001033B613B690023FB6098
:101A9000344B1B6B334A43F002031363314B1B6B14
:101AA00003F00203FB60FB680023BB602D4B1B6B44
:101AB0002C4A43F0400313632A4B1B6B03F0400393
:101AC000BB60BB6832237B620223BB620023FB62E4
:101AD00003233B630B237B6307F12403194622484E
:101AE00002F080FC86237B620223BB620023FB6240
:101AF00003233B630B237B6307F1240319461B4835
:101B000002F070FC4FF400537B620223BB6200239F
:101B1000FB6203233B630B237B6307F1240319461A
:101B2000134802F05FFC4FF420537B620223BB6238
:101B30000023FB6203233B630B237B6307F1240336
:101B400019460C4802F04EFC002205213D2002F00F
:101B50001EFC3D2002F037FC00BF3837BD4680BD7B
:101B600000800240003802400008024000000240AD
:101B7000000402400018024080B582B000AF7860D7
:101B8000044B1B68184606F065FE00BF0837BD46CB
:101B900080BD00BF3437002080B590B000AF7860C2
:101BA0000023BB635D4B5E4A1A605C4B01225A60A6
:101BB0005A4B4FF480429A60584B4FF40062DA60FF
:101BC000564B00221A8200233B7380237B73E12350
:101BD000BB730023FB7300233B7400237B744F4AC9
:101BE00007F10C0353614D4B01229A614B4B0022CC
:101BF000DA614A4B4FF400021A62484800F07AFC5E
:101C0000034687F83F3097F83F30002B08D17B68B8
:101C100093F82F3043F00403DAB27B6883F82F2067
:101C20000423404A40493D4800F0F0FD04233F4A68
:101C30003F493A4800F051FE7B68062283F828208D
:101C4000364B5B691A787B6883F82920334B5B69D4
:101C50005A787B6883F82A20304B5B699A787B68D6
:101C600083F82B202D4B5B69DA787B6883F82C2076
:101C70002A4B5B691A797B6883F82D20274B5B69B7
:101C80005A797B6883F82E207B6840F2DC52DA8434
:101C90007B6893F82F3043F00A03DAB27B6883F84D
:101CA0002F2000220121012006F0D2FC0346214A08
:101CB000136007F1140324220021184613F052FD8B
:101CC0001D4B7B614FF4AF73BB623023FB6207F1A6
:101CD00014031A467968194806F09AFA0F4801F079
:101CE0001AF907F138031A461D210C4801F045F88E
:101CF000BB6B43F00B03BB63BB6B1A461D2107484C
:101D000001F0A3F807F138031A461D21034801F03A
:101D100034F800BF4037BD4680BD00BF38370020D3
:101D200000800240641F0020140700209407002058
:101D30009406002034370020946E0108E11F00084B
:101D400080B58AB000AF786039604B4BDB6A9B6826
:101D5000FB6100237B6100233B610023FB600023C8
:101D6000BB60454BDB6ABB6100233B613B683B6268
:101D70005AE0BB691B68002B03DAF82387F8273089
:101D80005CE03B6A5B89FB600023BB602FE0FA6983
:101D90003B69D0183B6A5A68BB68D1183B69C3F5E8
:101DA000BE6304331A4613F0CFFCBB69DB68BB612A
:101DB000BB691B68002B03DAF82387F827303DE066
:101DC000BB699B68FB613A69FB681344A3F2F45357
:101DD000FB60BA683B69D31A03F2F453BB607A69BB
:101DE0003B69D31A03F2F4537B6100233B61FA6829
:101DF0003B69134440F2F4529342C8D8FA693B69F4
:101E0000D0183B6A5A68BB681344FA68194613F045
:101E10009BFC3A69FB6813443B617A69FB68134495
:101E20007B613B6A1B683B623B6A002BA1D17969ED
:101E3000114800F0BDFD002387F827300E4B1B68CA
:101E400003F580535B6903F02003002B0DD00A4B90
:101E50001B6803F580531A4620235361064B1B6809
:101E600003F580531A460023536097F9273018462C
:101E70002837BD4680BD00BF3837002080B58CB004
:101E800000AF78600023FB620023BB620023FB816C
:101E90000023FB610023BB6100237B6100233B61C6
:101EA0004E4800F06DFE0346002B01D0002390E069
:101EB0004A4BDB6BFB81494B1B6C7B62FB89002B24
:101EC00006D0FB890322194604200AF063FCF8625D
:101ED000FB6A002B4BD0414B1B6B3B620023FB6129
:101EE000FB6ABB6240E0BB6A5B897B610023BB612C
:101EF00021E0BB6A5A68BB69D0187A6AFB69D118BD
:101F0000FB69C3F5BE6304331A4613F01DFC3B6A3C
:101F1000DB683B623B6A9B687B62FA697B691344BE
:101F2000A3F2F4537B61BA69FB69D31A03F2F45349
:101F3000BB610023FB617A69FB69134440F2F452F0
:101F40009342D6D8BB6A5A68BB69D0187A6AFB69D3
:101F500013447A69194613F0F7FBFA697B69134455
:101F6000FB61BB6A1B68BB62BB6A002BBBD11B4B0E
:101F70001B6B3B6200233B610BE03B6A1B6843F039
:101F800000423B6A1A603B6ADB683B623B69013393
:101F90003B61124B9B6B3A699A42EED30F4B002286
:101FA0009A630E4B1B6803F580535B6903F0800353
:101FB000002B0DD0094B1B6803F580531A46802374
:101FC0005361064B1B6803F580531A460023936048
:101FD000FB6A18463037BD4680BD00BF3837002049
:101FE00080B584B000AF78607B68FB60124B1B68E3
:101FF0004FF0FF31184606F0C7FB0346002BF5D122
:102000000E4813F0E9FAF868FFF738FFB860BB68CC
:10201000002B0AD0FB681B69F968B868984703462B
:10202000002B02D0B8680AF02DFF044813F0E3FA41
:10203000BB68002BE4D1D9E73437002058C2002018
:1020400080B582B000AF78607B68002B06D10E4B64
:1020500040F23B220D490E4813F08CFB7B68732243
:1020600083F830207B68742283F831207B68094A2A
:102070005A617B68084A9A617868FFF78DFD0023F2
:1020800018460837BD4680BD9C6E0108B86E010831
:10209000C86E0108BD370108411D000880B500AFBA
:1020A00001F0CEFB0346184680BD000080B584B029
:1020B00000AF78600023BB607B68FB6007F108031A
:1020C0001A460121164800F058FEBB6803F00403CD
:1020D000BB60FB681B6893F82F3003F00403002BF0
:1020E00008D1BB68002B05D0FB681B6818460AF0B6
:1020F00095FA11E0FB681B6893F82F309B0803F0FA
:102100000103DBB2002B07D0BB68002B04D1FB68B6
:102110001B6818460AF0ADFAC82006F023F9CDE78F
:102120003837002080B584B000AF78600023FB60B2
:102130000023BB607B6893F82F309B0803F00103FA
:10214000DBB2002B5DD0344B5B68002B3FD04FF4EB
:1021500080520021304800F078FE01F071FB034608
:10216000FB6007F108031A4601212B4800F005FE29
:1021700001F066FB0246FB68D31AB3F57A7F28D8D4
:10218000BB6803F02003002BEBD007F108031A46CD
:102190001021214800F0F1FDBB6803F00403002B7F
:1021A00004D01D4B4FF40062DA6002E01A4B0022AB
:1021B000DA60BB6803F00203002B03D0164B002249
:1021C0009A6016E0144B4FF480429A6011E000BF11
:1021D00000E000BF104BDB68DB089AB20E4B9B6837
:1021E0005B089BB213439BB21A4600210A4800F0D9
:1021F0002CFE0021084800F0EDFE074800F08BFEA1
:1022000002E0054800F0B6FE786800F007F800BF6D
:102210001037BD4680BD00BF3837002080B483B082
:1022200000AF786000BF0C37BD4680BC704700002F
:1022300080B584B004AFA04BA9221A709E4BFE2239
:102240005A709D4BBF229A709B4BE022DA709B4BD9
:10225000FF221A70994BFF225A70984BFF229A70F6
:10226000964B0022DA70964B00221A70944B002293
:102270005A70934B00229A70914B0022DA70002121
:10228000002009F0BDFB8C4B1B781A068A4B5B784B
:102290001B041A43884B9B781B021343864AD2784F
:1022A00013431A06844B1B781906834B5B781B0477
:1022B0001943814B9B781B020B437F49C9780B4321
:1022C0001B0203F47F031A437B4B1B7819067A4BDE
:1022D0005B781B041943784B9B781B020B437649B0
:1022E000C9780B431B0A03F47F431A43724B1B78D4
:1022F0001906714B5B781B0419436F4B9B781B02CB
:102300000B436D49C9780B431B0E13436D4A136091
:102310006A4B1B781A06694B5B781B041A43674BA0
:102320009B781B021343654AD27813431A06634B0A
:102330001B781906614B5B781B0419435F4B9B7834
:102340001B020B435D49C9780B431B0203F47F0357
:102350001A435A4B1B781906584B5B781B041943D8
:10236000564B9B781B020B435449C9780B431B0AFD
:1023700003F47F431A43514B1B7819064F4B5B788C
:102380001B0419434D4B9B781B020B434B49C978E7
:102390000B431B0E13434C4A1360494B1B781A0620
:1023A000474B5B781B041A43454B9B781B02134336
:1023B000434AD27813431A06414B1B781906404B07
:1023C0005B781B0419433E4B9B781B020B433C4933
:1023D000C9780B431B0203F47F031A43384B1B7865
:1023E0001906374B5B781B041943354B9B781B024E
:1023F0000B433349C9780B431B0A03F47F431A4349
:102400002F4B1B7819062E4B5B781B0419432C4B62
:102410009B781B020B432A49C9780B431B0E1343BD
:102420002A4A13602A4B02932A4B019300230093FC
:10243000264B254A2349284809F09AFF26480AF0E6
:1024400079F8254B93F82F309B0803F00103DBB29A
:10245000002B03D020480AF07BF802E01E480AF067
:10246000BBF81E491C480AF024F900220121012072
:1024700006F0EEF803461A4A13601A4B164A1A6021
:10248000174B1B68174A536024220021164813F08B
:1024900069F9154B154A1A60134B4FF480625A6163
:1024A000114B10229A61104A0E49114805F0B0FEF6
:1024B00000BFBD4680BD00BFCC370020D037002014
:1024C000D4370020C0370020C4370020C837002090
:1024D000FDB80008412000088C37002025210008A5
:1024E0008037002084370020D8370020F06E0108A4
:1024F000AD20000880B588B000AF78600023FB6194
:102500000023FB60A34BBB6100237B6100233B6185
:102510007B68002B01D1012373E17B6893F8443081
:10252000DBB2002B06D17B68002283F84520786857
:10253000FFF754FA0023BB60974B5B6C964A43F459
:1025400080435364944B5B6C03F48043BB60BB6873
:10255000924B5B68914A23F4000353608F4B5A6897
:102560007B681B6A8D4913434B607B681B6803F5CE
:1025700080531B687A68126843F0010302F58052A9
:10258000136001F05DF9786111E001F059F902463C
:102590007B69D31AB3F5FA7F09D97B68032283F8E4
:1025A00044207B68002283F84520032329E17B68CF
:1025B0001B6803F580531B6803F00103002BE4D173
:1025C0007B681B681B69FB61FB6923F01C03FB61D3
:1025D00001F0AAFDB861BB69714A934208D9BB6991
:1025E000704A934204D8FB6943F00803FB611AE088
:1025F000BB696C4A934208D9BB69664A934204D2CC
:10260000FB6943F00C03FB610DE0BB69614A934237
:1026100003D3BB69644A934204D9FB6943F00403C2
:10262000FB6100E000BF7B681B68FA691A614FF428
:1026300000420021786800F008FC0346002B0BD014
:1026400001233B613969786800F0BEFD7B68012297
:1026500083F844200123D4E0FF2001F0FBF87B68DD
:102660005B68002B00F0A28001F0EAF8786107F1C6
:102670000C031A460121786800F07FFB01F0E0F8B6
:1026800002467B69D31A41F2883293420FD9012363
:102690003B613969786800F097FD7B68012283F817
:1026A00044207B68002283F845200323A9E0FB68CF
:1026B00003F00403002BDAD04FF480520021786835
:1026C00000F0C3FB0346002B0BD001233B613969AB
:1026D000786800F079FD7B68012283F844200123AB
:1026E0008FE001F0ADF8786107F10C031A46012183
:1026F000786800F042FB01F0A3F802467B69D31A28
:1027000041F2883293420FD901233B6139697868DD
:1027100000F05AFD7B68012283F844207B68002288
:1027200083F8452003236CE0FB6803F02003002BB3
:10273000DAD007F10C031A461021786800F01DFB6F
:102740000346002B0BD001233B613969786800F008
:102750003BFD7B68012283F84420012351E0FB68A4
:1027600003F00403002B04D07B684FF40062DA60AE
:1027700002E07B680022DA60FB6803F00203002BB2
:1027800003D07B6800229A6032E07B684FF480427D
:102790009A602DE000879303003802400038014022
:1027A000FF2C3101BF0E1602FFE0F5057B68DB68E8
:1027B000DB089AB27B689B685B089BB213439BB2B1
:1027C0001A460021786800F040FB0346002B0BD02E
:1027D00001233B613969786800F0F6FC7B680122CF
:1027E00083F8442001230CE040F6FF7001F032F83A
:1027F0003969786800F0E8FC7B68012283F844209E
:10280000002318462037BD4680BD00BF80B487B086
:1028100000AFF860B9607A603B6000237B61FB68C1
:1028200093F84530012B01D1022351E0FB680122CE
:1028300083F84520FB68022283F84420FB68BA68CD
:10284000DA6200237B6130E07B695B01BA68134484
:102850003B613B694FF480121A607B6940F2F4528D
:1028600002FB03F37A6813441A463B699A60FB68DB
:10287000DB69002B05D13B691B6843F440023B69CF
:102880001A603B68013B7A699A4208D27B6901333E
:102890005B01BA6813441A463B69DA6002E0BA6821
:1028A0003B69DA607B6901337B617A693B689A42F4
:1028B000CAD3FB681A68BB6802F580521361FB68D3
:1028C000012283F84420FB68002283F8452000237E
:1028D00018461C37BD4680BC704780B487B000AF37
:1028E000F860B9607A603B6000237B61FB6893F815
:1028F0004530012B01D1022355E0FB68012283F80A
:102900004520FB68022283F84420FB68BA689A627B
:1029100000237B6134E07B695B01BA6813443B614F
:102920003B694FF000421A603B6944F2F4525A602E
:102930007B6940F2F45202FB03F37A6813441A46AF
:102940003B699A60FB689B69012B05D13B695B6819
:1029500023F000423B695A603B68013B7A699A4226
:1029600008D27B6901335B01BA6813441A463B699C
:10297000DA6002E0BA683B69DA607B6901337B6147
:102980007A693B689A42C6D3FB681A68BB6802F54D
:102990008052D360FB68012283F84420FB68002248
:1029A00083F84520002318461C37BD4680BC70477D
:1029B00080B487B000AF7860396000237B6100236A
:1029C000FB6000233B617B6893F84530012B01D10C
:1029D0000223CCE07B68012283F845207B68022239
:1029E00083F844203B68002B09D17B68012283F8DF
:1029F00044207B68002283F845200123B7E07B68F0
:102A0000DB6A1B68002B09DA7B68122283F84420FA
:102A10007B68002283F845200123A8E03B6840F250
:102A2000F452934215D93B68534AA2FB03239B0AF5
:102A30007B613A68504BA3FB02139B0A40F2F451AE
:102A400001FB03F3D31A002B05D07B6901337B61B3
:102A500001E001237B617B69012B1CD17B68DB6A70
:102A60001A687B68DB6A42F040521A607B68DB6A56
:102A70003A68C2F30C025A607B68DB6A1A687B68AA
:102A8000DB6A42F000421A607B68DB6ADB681A4648
:102A90007B68DA624BE000233B6144E07B68DB6AE1
:102AA0001A687B68DB6A22F040521A603B69002B8F
:102AB00007D17B68DB6A1A687B68DB6A42F0805268
:102AC0001A607B68DB6A40F2F4525A607B69013B12
:102AD0003A699A4216D17B68DB6A1A687B68DB6ABE
:102AE00042F000521A607B69244A03FB02F23B6801
:102AF000134403F2F453FB607B68DB6AFA68C2F3A9
:102B00000C025A607B68DB6A1A687B68DB6A42F0F9
:102B100000421A607B68DB6ADB681A467B68DA620F
:102B20003B6901333B613A697B699A42B6D37B6862
:102B30001B6803F580535B6903F00403002B0DD081
:102B40007B681B6803F580531A46042353617B6836
:102B50001B6803F580531A46002353607B680122EB
:102B600083F844207B68002283F845200023184620
:102B70001C37BD4680BC70470BB002AC0CFAFFFF9F
:102B800080B485B000AF78600023FB607B6893F869
:102B90004530012B01D1022374E07B68012283F8C8
:102BA00045207B68022283F844205AE0FB68013309
:102BB000FB607B689B6A1B6803F44073B3F5007F7E
:102BC0000DD17B689A6A7B681A637B6801229A63DD
:102BD0007B689B6ADB681A467B689A6241E07B6887
:102BE0009B6A1B6803F44073002B0BD17B689B6BC3
:102BF0005A1C7B689A637B689B6ADB681A467B6811
:102C00009A622EE07B689A6A7B685A637B689B6B4A
:102C10005A1C7B689A637B689B6B012B03D17B6892
:102C20009A6A7B681A637B689B6A1B681B0CC3F3F8
:102C30000D031A1F7B68DA637B681B6B9A687B68DD
:102C40001A647B689B6ADB681A467B689A627B68B9
:102C5000012283F844207B68002283F8452000236A
:102C600010E07B689B6A1B68002B02DBFB68032B70
:102C70009CD97B68012283F844207B68002283F87A
:102C80004520012318461437BD4680BC704780B5E7
:102C900082B000AF78607B681B6803F580535B6986
:102CA00003F04003402B12D17868FEF765FF7B6884
:102CB0001B6803F580531A46402353617B68012249
:102CC00083F844207B68002283F845201AE07B6863
:102CD0001B6803F580535B6903F00103012B11D1DD
:102CE000786800F038F87B681B6803F580531A4653
:102CF000012353617B68012283F844207B68002212
:102D000083F845207B681B6803F580531A464FF40F
:102D1000803353617B681B6803F580535B6903F460
:102D20000043B3F5004F12D1786800F01DF87B68BE
:102D30001B6803F580531A464FF4004353617B68C8
:102D4000012283F844207B68002283F8452000BFDD
:102D50000837BD4680BD80B483B000AF786000BF47
:102D60000C37BD4680BC704780B483B000AF78603C
:102D700000BF0C37BD4680BC704780B586B000AF41
:102D8000F8600B467A607B8100237B6100233B6106
:102D9000FB6893F84430DBB2822B01D1022350E070
:102DA000FB68822283F84420FB681B681B697B61F7
:102DB0007B6903F01C037B61FB681B8ADB029BB20F
:102DC0007A6913437B617B899B0103F4F8637A6919
:102DD00013437B617B6923F002037B617B6943F0D2
:102DE00001037B61FB681B687A691A6100F028FDAA
:102DF000386115E000F024FD02463B69D31AB3F5B3
:102E0000803F09D3FB68012283F84420FB6800223D
:102E100083F84520032314E0FB681B681B697B6172
:102E20007B6903F00103002BE4D1FB681B685B693D
:102E30009BB21A467B681A60FB68012283F8442023
:102E4000002318461837BD4680BD80B586B000AF58
:102E5000F8600B467A607B8100237B6100233B6135
:102E6000FB6893F84430DBB2422B01D102234EE0E1
:102E7000FB68422283F84420FB681B681B697B6166
:102E80007B6903F01C037B61FB681B8ADB029BB23E
:102E90007A6913437B617B899B0103F4F8637A6948
:102EA00013437B617B6943F002037B617B6943F0E1
:102EB00001037B617B689AB2FB681B685A61FB68FF
:102EC0001B687A691A6100F0BBFC386115E000F0FC
:102ED000B7FC02463B69D31AB3F5803F09D3FB68C0
:102EE000012283F84420FB68002283F84520032355
:102EF0000DE0FB681B681B697B617B6903F00103C4
:102F0000002BE4D1FB68012283F8442000231846FB
:102F10001837BD4680BD80B582B000AF78607B6851
:102F200093F84530012B01D102231FE07B68012279
:102F300083F845207B68022283F84420786800F0FB
:102F40003FFB786800F076FB786800F001FC786859
:102F500000F0AAFB786800F0D1FB7B68012283F8BF
:102F600044207B68002283F8452000231846083758
:102F7000BD4680BD80B582B000AF78607B6893F8B5
:102F80004530012B01D102231FE07B68012283F829
:102F900045207B68022283F84420786800F099FB82
:102FA000786800F0C0FB786800F061FB786800F09A
:102FB000CFFB786800F021FB7B68012283F8442076
:102FC0007B68002283F84520002318460837BD4659
:102FD00080BD000080B584B000AF78603960002308
:102FE000FB607B6893F84530012B01D10223E4E0BC
:102FF0007B68012283F845207B68022283F8442005
:103000003B68002B00F0B1807B681B681B68FB608D
:10301000FA686C4B1340FB603B681A683B685B685E
:103020001A433B689B681A433B68DB681A437B681A
:103030009B681A433B681B691A433B685B691A43E8
:103040007B68DB681A433B689B691A433B68DB6912
:103050001A433B681B6A1A433B685B6A1A433B6826
:103060009B6A1343FA681343FB607B681B68FA682A
:103070001A607B681B681B68FB60012000F0EAFB9C
:103080007B681B68FA681A603B68DA6A3B681B6BEE
:103090001A433B685B6B1A433B689B6B1A433B6864
:1030A000DB6B1A433B681B6C1A433B685B6C42EA60
:1030B00003013B689A6C7B681B680A435A607B6813
:1030C0001B685B68FB60012000F0C4FB7B681B6829
:1030D000FA685A607B681B683A68D26C9A607B68B1
:1030E0001B683A68126DDA607B681B689B69FB603D
:1030F000FA684FF641731340FB603B685B6D1A043E
:103100003B689B6D1A433B68DB6D1A433B681B6E43
:103110001A433B685B6E1A433B689B6E1343FA6825
:103120001343FB607B681B68FA689A617B681B68C5
:103130009B69FB60012000F08DFB7B681B68FA68CF
:103140009A613B68D96E3B681A6F7B681B680A43BB
:10315000DA617B681B68DB69FB60012000F07AFBA9
:103160007B681B68FA68DA611EE07B681B681B6875
:10317000FB60FB6823F49043FB607B689A687B6884
:10318000DB681343FA681343FB607B681B68FA68CB
:103190001A607B681B681B68FB60012000F05AFB0B
:1031A0007B681B68FA681A607B68012283F84420F8
:1031B0007B68002283F84520002318461037BD465F
:1031C00080BD00BF0F8120FF80B5B0B000AF786038
:1031D00039600023C7F8BC303B68002B07D07B6800
:1031E0004FF40062DA607B684FF480429A600023FB
:1031F000BB640023FB6400233B6500237B65002345
:10320000BB650023FB657B68DB69002B03D14FF4B2
:1032100080633B6601E000233B664FF400737B66EE
:103220000023BB660023FB6600233B6700237B670C
:103230000023BB674023FB670023C7F880300023CF
:10324000C7F884300023C7F888300023C7F88C30D3
:103250000023C7F890300023C7F894300023C7F844
:1032600098300023C7F89C308023C7F8A030002393
:10327000C7F8A4300023C7F8A8300023C7F8AC3043
:103280000023C7F8B0300023C7F8B4300023C7F8D4
:10329000B8307B681B681B68C7F8BC30D7F8BC2007
:1032A000AA4B1340C7F8BC30BA6CFB6C1A433B6D99
:1032B0001A437B6D1A437B689B681A43BB6D1A43A4
:1032C000FB6D1A437B68DB681A433B6E1A437B6EC7
:1032D0001A43BB6E1A43FB6E1A433B6F1343D7F876
:1032E000BC201343C7F8BC307B681B68D7F8BC20F0
:1032F0001A607B681B681B68C7F8BC30012000F0AF
:10330000A9FA7B681B68D7F8BC201A607A6FBB6F7C
:103310001A43FB6F1A43D7F880301A43D7F884302A
:103320001A43D7F888301A43D7F88C3042EA0301A1
:10333000D7F890207B681B680A435A607B681B683B
:103340005B68C7F8BC30012000F084FA7B681B681A
:10335000D7F8BC205A607B681B68D7F894209A6025
:103360007B681B68D7F89820DA607B681B689B69CC
:10337000C7F8BC30D7F8BC204FF641731340C7F8EC
:10338000BC30D7F89C301A04D7F8A0301A43D7F8CD
:10339000A4301A43D7F8A8301A43D7F8AC301A43F0
:1033A000D7F8B0301343D7F8BC201343C7F8BC306C
:1033B0007B681B68D7F8BC209A617B681B689B6997
:1033C000C7F8BC30012000F045FA7B681B68D7F8CD
:1033D000BC209A61D7F8B410D7F8B8207B681B6876
:1033E0000A43DA617B681B68DB69C7F8BC300120DF
:1033F00000F030FA7B681B68D7F8BC20DA61002344
:10340000BB604FF00073FB6000233B614FF400137F
:103410007B610023BB610023FB6100233B6200232F
:103420007B620423BB624FF00073FB624FF4803376
:103430003B634FF480037B634FF40053BB638023F3
:10344000FB6300233B6400237B647B681B6803F5FC
:1034500080539B69C7F8BC30D7F8BC203C4B134065
:10346000C7F8BC30BA68FB681A433B691A437B69EA
:103470001A43BB691A43FB691A433B6A1A437B6AC6
:103480001A43BB6A1343D7F8BC201343C7F8BC30B8
:103490007B681B6803F580531A46D7F8BC309361EC
:1034A0007B681B6803F580539B69C7F8BC3001201B
:1034B00000F0D0F97B681B6803F580531A46D7F8F3
:1034C000BC309361FA6A3B6B1A437B6B1A43BB6B4C
:1034D0001A43FB6B1A433B6C9B001A437B6C1343F0
:1034E0007A68126843F4000302F5805213607B6827
:1034F0001B6803F580531B68C7F8BC30012000F03F
:10350000A9F97B681B6803F580531A46D7F8BC30CD
:1035100013607B689B69012B0DD17B681B6803F5E9
:103520008053DB697A68126843F4803343F04003C8
:1035300002F58052D3617B685B691A460021786886
:1035400000F008F800BFC037BD4680BD0F8120FFE6
:10355000233FDEF880B487B000AFF860B9607A60CE
:103560007B6805331B781B027A6804321278134398
:103570007B61BA68104B13441A467B6913607B6801
:1035800003331B781A067B6802331B781B041A432B
:103590007B6801331B781B0213437A68127813434C
:1035A0007B61BA68054B13441A467B69136000BF00
:1035B0001C37BD4680BC70474080024044800240BA
:1035C00080B584B000AF78600023FB607B681B6827
:1035D0001A687B681B6842F008021A607B681B68E7
:1035E0001B68FB60012000F0D9F87B681B68FA6853
:1035F0001A6000BF1037BD4680BD80B584B000AFF3
:1036000078600023FB607B681B681A687B681B6816
:1036100022F008021A607B681B681B68FB600120AF
:1036200000F0BCF87B681B68FA681A6000BF1037AE
:10363000BD4680BD80B584B000AF78600023FB60DC
:103640007B681B681A687B681B6842F004021A607A
:103650007B681B681B68FB60012000F09FF87B689B
:103660001B68FA681A6000BF1037BD4680BD80B580
:1036700084B000AF78600023FB607B681B681A6829
:103680007B681B6822F004021A607B681B681B6859
:10369000FB60012000F082F87B681B68FA681A6002
:1036A00000BF1037BD4680BD80B483B000AF7860E6
:1036B0007B681B6803F580539B697A68126843F442
:1036C000005302F58052936100BF0C37BD4680BCA9
:1036D000704780B483B000AF78607B681B6803F5E7
:1036E00080539B697A68126823F4005302F5805274
:1036F000936100BF0C37BD4680BC704780B483B077
:1037000000AF78607B681B6803F580539B697A681B
:10371000126843F0020302F58052936100BF0C3738
:10372000BD4680BC704780B483B000AF78607B68D2
:103730001B6803F580539B697A68126823F00203C3
:1037400002F58052936100BF0C37BD4680BC7047C4
:1037500080B584B000AF78600023FB607B681B6895
:1037600003F580539B697A68126843F4801302F56D
:10377000805293617B681B6803F580539B69FB60F3
:10378000012000F00BF87B681A68FB6802F5805294
:10379000936100BF1037BD4680BD000080B485B086
:1037A00000AF78600A4B1B680A4AA2FB03235B0A3E
:1037B0007A6802FB03F3FB6000BFFB685A1EFA60E5
:1037C000002BF9D100BF00BF1437BD4680BC704745
:1037D000AC000020D34D621080B500AF0E4B1B68CB
:1037E0000D4A43F4007313600B4B1B680A4A43F401
:1037F00080631360084B1B68074A43F480731360AF
:10380000032000F0B9FD0F20FEF76CF8FDF7B2FFC2
:103810000023184680BD00BF003C024080B400AFCA
:10382000054B1B781A46054B1B681344034A13606B
:1038300000BFBD4680BC7047A8000020FC370020B8
:1038400080B400AF024B1B681846BD4680BC704771
:10385000FC37002080B584B000AF7860FFF7F0FF40
:10386000B8607B68FB60FB68B3F1FF3F05D00A4B93
:103870001B781A46FB681344FB6000BFFFF7E0FFAC
:103880000246BB68D31AFA689A42F7D800BF00BF55
:103890001037BD4680BD00BFA800002080B58AB0AB
:1038A00000AF78607B68002B01D1012336E27B6892
:1038B0001B6803F00103002B50D09E4B9B6803F064
:1038C0000C03042B0CD09B4B9B6803F00C03082BC0
:1038D00012D1984B5B6803F48003B3F5800F0BD1D2
:1038E000944B1B6803F40033002B36D07B685B6875
:1038F000002B32D1012311E27B685A688E4BD2B281
:103900001A707B685B68002B13D0FFF799FF386251
:1039100008E0FFF795FF02463B6AD31A642B01D9F2
:103920000323FBE1834B1B6803F40033002BF0D02F
:1039300014E0FFF785FF386208E0FFF781FF0246D9
:103940003B6AD31A642B01D90323E7E1794B1B6847
:1039500003F40033002BF0D100E000BF7B681B684C
:1039600003F00203002B77D0724B9B6803F00C032B
:10397000002B0BD06F4B9B6803F00C03082B26D158
:103980006C4B5B6803F48003002B20D1694B1B68F0
:1039900003F00203002B05D07B68DB68012B01D00C
:1039A0000123BBE1634B1B6823F0F8027B681B69B2
:1039B000F821B961B96991FAA1F179617969B1FA2E
:1039C00081F1C9B28B405B4913430B6044E07B68D3
:1039D000DB68002B2AD0594B01221A60FFF730FF19
:1039E000386208E0FFF72CFF02463B6AD31A022B2D
:1039F00001D9032392E14F4B1B6803F00203002B14
:103A0000F0D04C4B1B6823F0F8027B681B69F8214F
:103A10003961396991FAA1F1F960F968B1FA81F176
:103A2000C9B28B40434913430B6015E0434B00225E
:103A30001A60FFF705FF386208E0FFF701FF024652
:103A40003B6AD31A022B01D9032367E1394B1B6868
:103A500003F00203002BF0D17B681B6803F008031E
:103A6000002B30D07B685B69002B16D0344B0122D1
:103A70001A60FFF7E5FE386208E0FFF7E1FE024654
:103A80003B6AD31A022B01D9032347E1294B5B6F11
:103A900003F00203002BF0D015E0294B00221A603E
:103AA000FFF7CEFE386208E0FFF7CAFE02463B6A27
:103AB000D31A022B01D9032330E11E4B5B6F03F0B5
:103AC0000203002BF0D17B681B6803F00403002B7A
:103AD00000F08780002387F82730164B1B6C03F01B
:103AE0008053002B10D10023BB60124B1B6C114A7A
:103AF00043F0805313640F4B1B6C03F08053BB6087
:103B0000BB68012387F827300E4B1B680D4A43F42E
:103B1000807313600B4B1B6803F48073002B22D15E
:103B2000084B1B68074A43F480731360FFF788FE55
:103B3000386212E00038024002380240000047427A
:103B4000800E474200700040FFF77AFE02463B6A53
:103B5000D31A022B01D90323E0E0724B1B6803F454
:103B60008073002BF0D07B689A686F4BD2B21A70CA
:103B70007B689B68002B15D0FFF762FE38620AE075
:103B8000FFF75EFE02463B6AD31A41F28832934247
:103B900001D90323C2E0654B1B6F03F00203002B26
:103BA000EED014E0FFF74CFE38620AE0FFF748FE63
:103BB00002463B6AD31A41F28832934201D9032369
:103BC000ACE05A4B1B6F03F00203002BEED197F8C9
:103BD0002730012B05D1554B1B6C544A23F08053E1
:103BE00013647B689B69002B00F097804F4B9B68A8
:103BF00003F00C03082B61D07B689B69022B46D134
:103C00004B4B00221A60FFF71BFE386208E0FFF7FB
:103C100017FE02463B6AD31A642B01D903237DE0C9
:103C2000424B1B6803F00073002BF0D13F4B5A68E6
:103C3000404B13407A68D1697A68126A11437A68F6
:103C4000526A920111437A68D26A120611437A6865
:103C5000926A5208013A12040A43344913434B60F2
:103C6000334B01221A60FFF7EBFD386208E0FFF7E3
:103C7000E7FD02463B6AD31A642B01D903234DE0CA
:103C80002A4B1B6803F00073002BF0D045E0284B53
:103C900000221A60FFF7D4FD386208E0FFF7D0FD7C
:103CA00002463B6AD31A642B01D9032336E01F4B2B
:103CB0001B6803F00073002BF0D12EE07B689B693A
:103CC000012B01D1012329E0184B5B68FB61FB69E3
:103CD00003F480027B68DB699A421CD1FB6903F024
:103CE0003F027B681B6A9A4215D1FB699B09C3F3AB
:103CF00008027B685B6A9A420DD1FB6903F440328B
:103D00007B689B6A9A4206D1FB6903F070627B680C
:103D1000DB6A9A4201D0012300E0002318462837CD
:103D2000BD4680BD0070004070380240003802403F
:103D3000600047420080BCF080B586B000AF78607C
:103D400039607B68002B01D10123D2E06B4B1B68EB
:103D500003F00F033A689A420CD9684B3A68D2B222
:103D60001A70664B1B6803F00F033A689A4201D041
:103D70000123BEE07B681B6803F00203002B20D008
:103D80007B681B6803F00403002B05D05C4B9B6829
:103D90005B4A43F4E05393607B681B6803F00803BD
:103DA000002B05D0564B9B68554A43F46043936003
:103DB000534B9B6823F0F0027B689B685049134388
:103DC0008B607B681B6803F00103002B40D07B688D
:103DD0005B68012B07D14A4B1B6803F40033002BAF
:103DE00015D1012385E07B685B68022B07D1444B2A
:103DF0001B6803F00073002B09D1012379E0404BCD
:103E00001B6803F00203002B01D1012371E03C4B3E
:103E10009B6823F003027B685B68394913438B601E
:103E2000FFF70EFD78610AE0FFF70AFD02467B69A5
:103E3000D31A41F28832934201D9032359E0304B1F
:103E40009B6803F00C027B685B689B009A42EBD195
:103E50002A4B1B6803F00F033A689A420CD2274B97
:103E60003A68D2B21A70254B1B6803F00F033A6808
:103E70009A4201D001233CE07B681B6803F00403F5
:103E8000002B08D01E4B9B6823F4E0527B68DB6854
:103E90001B4913438B607B681B6803F00803002BEE
:103EA00009D0174B9B6823F460427B681B69DB00D9
:103EB000134913438B6000F02BF80146104B9B68AD
:103EC00003F0F003F0223A613A6992FAA2F2FA6042
:103ED000FA68B2FA82F2D2B2D3400A4AD35C21FA2B
:103EE00003F3094A1360094B1B681846FDF7FAFCF7
:103EF000002318461837BD4680BD00BF003C024075
:103F00000038024010960108AC000020A4000020F8
:103F10002DE9B04F94B000AF00237B640023FB6415
:103F200000233B640023BB647C4B9B6803F00C03C1
:103F3000082B0DD0082B00F2E780002B02D0042BB9
:103F400003D0E1E0764BBB64E1E0764BBB64DEE09E
:103F5000724B5B6803F03F037B64704B5B6803F458
:103F60008003002B65D06D4B5B689B090022BB630F
:103F7000FA63BB6BC3F308033B6300237B63D7E99E
:103F80000C4522462B464FF000004FF0000159012E
:103F900041EAD261500102460B462146511A39616D
:103FA000294663EB01037B614FF000024FF00003F1
:103FB000D7E904AB59468B01514643EA9163514618
:103FC0008A01D446B2EB0C08594663EB01094FF065
:103FD00000024FF000034FEAC90343EA58734FEA67
:103FE000C80290469946234618EB0303BB602B4654
:103FF00049EB0303FB604FF000024FF00003D7E9E9
:10400000024529464B0220462946044643EAD4533A
:1040100001464A02104619467B6C0022BB62FA62D6
:10402000D7E90A23FCF7DCF802460B461346FB648B
:104030005CE03A4B5B689B09002218461146C0F3CE
:1040400008033B6200237B62D7E9088942464B465E
:104050004FF000004FF00001590141EAD2615001D8
:1040600002460B46C446B2EB0C0A404649468C4613
:1040700063EB0C0B4FF000024FF000034FEA8B1381
:1040800043EA9A634FEA8A12B2EB0A0463EB0B0528
:104090004FF000024FF00003EB0043EA5473E200DC
:1040A00014461D460346E3183B600B4645EB0303ED
:1040B0007B604FF000024FF00003D7E9004529462E
:1040C0008B0220462946044643EA945301468A025D
:1040D000104619467B6C0022BB61FA61D7E90623C2
:1040E000FCF77EF802460B461346FB640B4B5B68FD
:1040F0001B0C03F0030301335B003B64FA6C3B6C65
:10410000B2FBF3F3BB6402E0054BBB6400BFBB6CC6
:1041100018465037BD46BDE8B08F00BF003802409A
:104120000024F40000127A0080B400AF024B1B6838
:104130001846BD4680BC7047AC00002080B582B0F8
:1041400000AFFFF7F1FF01460B4B9B6803F4E05310
:104150004FF4E0527A607A6892FAA2F23A603A68D2
:10416000B2FA82F2D2B2D340044AD35C21FA03F30A
:1041700018460837BD4680BD003802402096010829
:1041800080B582B000AFFFF7CFFF01460B4B9B68B5
:1041900003F460434FF460427A607A6892FAA2F2C4
:1041A0003A603A68B2FA82F2D2B2D340044AD35C9F
:1041B00021FA03F318460837BD4680BD0038024097
:1041C0002096010880B483B000AF786039607B68C6
:1041D0000F221A60114B9B6803F003027B685A6040
:1041E0000E4B9B6803F0F0027B689A600B4B9B6858
:1041F00003F4E0527B68DA60084B9B68DB0803F449
:10420000E0527B681A61064B1B6803F00F023B68A3
:104210001A6000BF0C37BD4680BC704700380240B2
:10422000003C024080B485B000AF78607B6803F04A
:104230000703FB600C4BDB68BB60BA684FF6FF03FB
:104240001340BB60FB681A02BB68134343F0BF63B3
:1042500043F40033BB60044ABB68D36000BF14372B
:10426000BD4680BC704700BF00ED00E080B400AFE9
:10427000044BDB681B0A03F007031846BD4680BCED
:10428000704700BF00ED00E080B483B000AF03468C
:10429000FB7197F90730002B0BDBFB7903F01F0252
:1042A000064997F907305B09012000FA02F241F84C
:1042B000232000BF0C37BD4680BC704700E100E002
:1042C00080B483B000AF03463960FB7197F90730C3
:1042D000002B0ADB3B68DAB20C4997F90730120170
:1042E000D2B20B4483F800230AE03B68DAB20849F3
:1042F000FB7903F00F03043B1201D2B20B441A7690
:1043000000BF0C37BD4680BC704700BF00E100E035
:1043100000ED00E080B489B000AFF860B9607A6069
:10432000FB6803F00703FB61FB69C3F10703042B80
:1043300028BF0423BB61FB690433062B02D9FB6948
:10434000033B00E000237B614FF0FF32BB6902FAC0
:1043500003F3DA43BB681A407B699A404FF0FF31A0
:104360007B6901FA03F3D9437B680B40134318467A
:104370002437BD4680BC704780B582B000AF7860FE
:104380007868FFF74FFF00BF0837BD4680BD80B596
:1043900086B000AF0346B9607A60FB7300237B618F
:1043A000FFF764FF78617A68B9687869FFF7B2FF50
:1043B000024697F90F3011461846FFF781FF00BFFC
:1043C0001837BD4680BD80B582B000AF0346FB7193
:1043D00097F907301846FFF757FF00BF0837BD466B
:1043E00080BD000080B487B000AF786039600023E2
:1043F0007B616FE13B681A6801217B6901FA03F375
:104400001340FB60FB68002B00F061813B685B6838
:1044100003F00303012B05D03B685B6803F0030343
:10442000022B30D17B689B683B617B695B00032278
:1044300002FA03F3DB433A6913403B613B68DA68F5
:104440007B695B0002FA03F33A6913433B617B68C3
:104450003A699A607B685B683B6101227B6902FA7A
:1044600003F3DB433A6913403B613B685B681B091C
:1044700003F001027B6902FA03F33A6913433B61DB
:104480007B683A695A603B685B6803F00303032B5F
:1044900017D07B68DB683B617B695B00032202FA13
:1044A00003F3DB433A6913403B613B689A687B69DD
:1044B0005B0002FA03F33A6913433B617B683A6994
:1044C000DA603B685B6803F00303022B23D17B694E
:1044D000DA087B68083253F822303B617B6903F0CD
:1044E00007039B000F2202FA03F3DB433A691340F0
:1044F0003B613B681A697B6903F007039B0002FA82
:1045000003F33A6913433B617B69DA087B6808323D
:10451000396943F822107B681B683B617B695B004B
:10452000032202FA03F3DB433A6913403B613B6821
:104530005B6803F003027B695B0002FA03F33A69EC
:1045400013433B617B683A691A603B685B6803F41C
:104550004033002B00F0BB800023BB60644B5B6CDE
:10456000634A43F480435364614B5B6C03F48043C0
:10457000BB60BB685F4A7B699B08023352F82330FB
:104580003B617B6903F003039B000F2202FA03F3F4
:10459000DB433A6913403B617B68574A934231D011
:1045A0007B68564A93422BD07B68554A934225D06C
:1045B0007B68544A93421FD07B68534A934219D078
:1045C0007B68524A934213D07B68514A93420DD084
:1045D0007B68504A934207D07B684F4A934201D18F
:1045E000082310E009230EE007230CE006230AE06D
:1045F000052308E0042306E0032304E0022302E08D
:10460000012300E000237A6902F003029200934044
:104610001A463B6913433B6136497B699B08023369
:104620003A6941F823203D4B1B683B61FB68DB4343
:104630003A6913403B613B685B6803F48033002BAD
:1046400003D03A69FB6813433B61344A3B6913600A
:10465000324B5B683B61FB68DB433A6913403B616B
:104660003B685B6803F40033002B03D03A69FB68B6
:1046700013433B61294A3B695360284B9B683B616C
:10468000FB68DB433A6913403B613B685B6803F4BA
:104690008013002B03D03A69FB6813433B611F4A28
:1046A0003B6993601D4BDB683B61FB68DB433A6908
:1046B00013403B613B685B6803F40013002B03D09D
:1046C0003A69FB6813433B61144A3B69D3607B69D9
:1046D00001337B613B681A687B6922FA03F3002B84
:1046E0007FF488AE00BF00BF1C37BD4680BC70475A
:1046F000003802400038014000000240000402403F
:1047000000080240000C0240001002400014024069
:1047100000180240001C024000200240003C014002
:1047200080B483B000AF78600B467B8013467B700B
:104730007B78002B03D07A887B689A6103E07B88C2
:104740001A047B689A6100BF0C37BD4680BC704775
:1047500080B584B000AF78607B689B6DFB60FFF72D
:104760006FF8B8607B6893F83530DBB2022B08D065
:104770007B6880225A657B68002283F834200123FD
:1047800052E07B681B681A687B681B6822F016027F
:104790001A607B681B685A697B681B6822F080027C
:1047A0005A617B681B6C002B03D17B689B6C002BD0
:1047B00007D07B681B681A687B681B6822F00802B8
:1047C0001A607B681B681A687B681B6822F001020C
:1047D0001A6013E0FFF734F80246BB68D31A052BC2
:1047E0000CD97B6820225A657B68032283F8352028
:1047F0007B68002283F83420032315E07B681B6864
:104800001B6803F00103002BE4D17B68DB6D3F22C2
:104810009A40FB689A607B68012283F835207B68A8
:10482000002283F83420002318461037BD4680BD8F
:1048300080B483B000AF78607B6893F83530DBB22A
:10484000022B04D07B6880225A6501230CE07B6830
:10485000052283F835207B681B681A687B681B6813
:1048600022F001021A60002318460C37BD4680BCB6
:10487000704780B582B000AF78607B68002B01D1B3
:10488000012341E07B6893F83D30DBB2002B06D179
:104890007B68002283F83C20786800F039F87B6858
:1048A000022283F83D207B681A687B68043319462E
:1048B000104600F0D1F97B68012283F846207B681E
:1048C000012283F83E207B68012283F83F207B6829
:1048D000012283F840207B68012283F841207B6815
:1048E000012283F842207B68012283F843207B6801
:1048F000012283F844207B68012283F845207B68ED
:10490000012283F83D20002318460837BD4680BDAC
:1049100080B483B000AF786000BF0C37BD4680BC68
:104920007047000080B485B000AF78607B6893F872
:104930003D30DBB2012B01D001234EE07B68022227
:1049400083F83D207B681B68DA687B681B6842F04F
:104950000102DA607B681B68224A934222D07B689E
:104960001B68B3F1804F1DD07B681B681E4A9342C1
:1049700018D07B681B681D4A934213D07B681B6864
:104980001B4A93420ED07B681B681A4A934209D097
:104990007B681B68184A934204D07B681B68174ADF
:1049A000934211D17B681B689B6803F00703FB608F
:1049B000FB68062B10D07B681B681A687B681B6835
:1049C00042F001021A6007E07B681B681A687B6886
:1049D0001B6842F001021A60002318461437BD46D6
:1049E00080BC704700000140000400400008004007
:1049F000000C00400004014000400140001800404D
:104A000080B582B000AF78607B681B681B6903F0DB
:104A10000203022B22D17B681B68DB6803F00203D0
:104A2000022B1BD17B681B686FF002021A617B6846
:104A300001221A777B681B689B6903F00303002B34
:104A400003D0786800F0EDF805E0786800F0E0F851
:104A5000786800F0EFF87B6800221A777B681B68A3
:104A60001B6903F00403042B22D17B681B68DB68FD
:104A700003F00403042B1BD17B681B686FF0040256
:104A80001A617B6802221A777B681B689B6903F4B2
:104A90004073002B03D0786800F0C3F805E0786815
:104AA00000F0B6F8786800F0C5F87B6800221A7745
:104AB0007B681B681B6903F00803082B22D17B6805
:104AC0001B68DB6803F00803082B1BD17B681B689D
:104AD0006FF008021A617B6804221A777B681B68F2
:104AE000DB6903F00303002B03D0786800F099F82A
:104AF00005E0786800F08CF8786800F09BF87B6837
:104B000000221A777B681B681B6903F01003102BC7
:104B100022D17B681B68DB6803F01003102B1BD1CC
:104B20007B681B686FF010021A617B6808221A7795
:104B30007B681B68DB6903F44073002B03D0786843
:104B400000F06FF805E0786800F062F8786800F02F
:104B500071F87B6800221A777B681B681B6903F079
:104B60000103012B0ED17B681B68DB6803F0010396
:104B7000012B07D17B681B686FF001021A6178680E
:104B8000FCF756F97B681B681B6903F08003802BD8
:104B90000ED17B681B68DB6803F08003802B07D194
:104BA0007B681B686FF080021A61786800F0FBF880
:104BB0007B681B681B6903F04003402B0ED17B68A8
:104BC0001B68DB6803F04003402B07D17B681B6840
:104BD0006FF040021A61786800F035F87B681B6856
:104BE0001B6903F02003202B0ED17B681B68DB6858
:104BF00003F02003202B07D17B681B686FF0200295
:104C00001A61786800F0C6F800BF0837BD4680BD5D
:104C100080B483B000AF786000BF0C37BD4680BC65
:104C2000704780B483B000AF786000BF0C37BD46DA
:104C300080BC704780B483B000AF786000BF0C3791
:104C4000BD4680BC704780B483B000AF786000BFC1
:104C50000C37BD4680BC704780B485B000AF78602B
:104C600039607B681B68FB607B683F4A934213D0C6
:104C70007B68B3F1804F0FD07B683C4A93420BD0E6
:104C80007B683B4A934207D07B683A4A934203D001
:104C90007B68394A934208D1FB6823F07003FB60BC
:104CA0003B685B68FA681343FB607B682E4A93425B
:104CB0002BD07B68B3F1804F27D07B682B4A93427F
:104CC00023D07B682A4A93421FD07B68294A9342AB
:104CD0001BD07B68284A934217D07B68274A9342AF
:104CE00013D07B68264A93420FD07B68254A9342B3
:104CF0000BD07B68244A934207D07B68234A9342B7
:104D000003D07B68224A934208D1FB6823F44073A6
:104D1000FB603B68DB68FA681343FB60FB6823F0C9
:104D200080023B685B691343FB607B68FA681A602A
:104D30003B689A687B68DA623B681A687B689A62AB
:104D40007B68094A934203D07B680B4A934203D1A4
:104D50003B681A697B681A637B6801225A6100BF4D
:104D60001437BD4680BC704700000140000400407D
:104D700000080040000C00400004014000400140D9
:104D8000004401400048014000180040001C004061
:104D90000020004080B483B000AF786000BF0C37C3
:104DA000BD4680BC704780B483B000AF786000BF60
:104DB0000C37BD4680BC704780B582B000AF7860CC
:104DC0007B68002B01D101233FE07B6893F83D30E5
:104DD000DBB2002B06D17B68002283F83C20786888
:104DE000FCF7F4FC7B68242283F83D207B681B6879
:104DF000DA687B681B6822F40052DA60786800F099
:104E0000ABFB7B681B681A697B681B6822F49042C5
:104E10001A617B681B685A697B681B6822F02A024A
:104E20005A617B681B68DA687B681B6842F4005231
:104E3000DA607B6800221A647B68202283F83D20B8
:104E40007B68202283F83E20002318460837BD46A1
:104E500080BD80B584B000AFF860B9601346FB80B8
:104E6000FB6893F83E30DBB2202B1DD1BB68002BD2
:104E700002D0FB88002B01D1012316E0FB6893F8D8
:104E80003C30012B01D102230FE0FB68012283F8A3
:104E90003C20FB6800221A63FB881A46B968F86850
:104EA00000F0D1F9034600E0022318461037BD4652
:104EB00080BD000080B58AB000AF78607B681B6859
:104EC0001B687B627B681B68DB683B627B681B68D6
:104ED0005B69FB610023BB6100237B617B6A03F09C
:104EE0000F03BB61BB69002B0DD17B6A03F020036C
:104EF000002B08D03B6A03F02003002B03D0786816
:104F000000F081FA7CE1BB69002B00F0B180FB6905
:104F100003F00103002B05D13B6A03F49073002BCF
:104F200000F0A6807B6A03F00103002B0AD03B6AE5
:104F300003F48073002B05D07B681B6C43F00102E7
:104F40007B681A647B6A03F00403002B0AD0FB69B8
:104F500003F00103002B05D07B681B6C43F00202B9
:104F60007B681A647B6A03F00203002B0AD0FB699A
:104F700003F00103002B05D07B681B6C43F0040297
:104F80007B681A647B6A03F00803002B0FD03B6A2E
:104F900003F02003002B04D1FB6903F00103002B75
:104FA00005D07B681B6C43F008027B681A647B6841
:104FB0001B6C002B00F01F817B6A03F02003002B89
:104FC00007D03B6A03F02003002B02D0786800F082
:104FD0001AFA7B681B685B6903F04003402B0CBF27
:104FE00001230023DBB27B617B681B6C03F00803A9
:104FF000002B02D17B69002B31D0786800F05CF97E
:105000007B681B685B6903F04003402B23D17B68FE
:105010001B685A697B681B6822F040025A617B68F2
:105020009B6B002B13D07B689B6B774A1A657B6860
:105030009B6B1846FFF7FCFB0346002B16D07B68E2
:105040009B6B1B6D7A68926B104698470EE07868F0
:1050500000F0E5F80AE0786800F0E1F806E078682A
:1050600000F0DDF87B6800221A64C4E000BFC2E0F3
:105070007B681B6B012B40F0A2807B6A03F010035E
:10508000002B00F09C803B6A03F01003002B00F023
:1050900096800023FB607B681B681B68FB607B6855
:1050A0001B685B68FB60FB687B681B685B6903F0DF
:1050B0004003402B4FD17B689B6B1B685B683B8236
:1050C0003B8A002B00F099807B689B8D3A8A9A423C
:1050D00080F093807B683A8ADA857B689B6BDB691A
:1050E000B3F5807F2BD07B681B68DA687B681B6810
:1050F00022F48072DA607B681B685A697B681B68DF
:1051000022F001025A617B681B685A697B681B6840
:1051100022F040025A617B68202283F83E207B689F
:1051200000221A637B681B68DA687B681B6822F0C0
:105130001002DA607B689B6B1846FFF709FB7B68FF
:105140009A8D7B68DB8D9BB2D31A9BB21946786827
:1051500000F06EF851E07B689A8D7B68DB8D9BB226
:10516000D31A7B827B68DB8D9BB2002B47D07B8A76
:10517000002B44D07B681B68DA687B681B6822F4CC
:105180009072DA607B681B685A697B681B6822F042
:1051900001025A617B68202283F83E207B6800224E
:1051A0001A637B681B68DA687B681B6822F0100250
:1051B000DA607B8A1946786800F03AF81FE07B6A6B
:1051C00003F08003002B08D03B6A03F08003002B20
:1051D00003D0786800F0B0F812E07B6A03F0400377
:1051E000002B0DD03B6A03F04003002B08D07868F9
:1051F00000F0F1F804E000BF02E000BF00E000BFF3
:105200002837BD4680BD00BF1153000880B483B06D
:1052100000AF786000BF0C37BD4680BC704780B4DB
:1052200083B000AF786000BF0C37BD4680BC7047CC
:1052300080B483B000AF78600B467B8000BF0C3732
:10524000BD4680BC704780B485B000AFF860B960DF
:105250001346FB80FB68BA689A62FB68FA889A85F5
:10526000FB68FA88DA85FB6800221A64FB68222250
:1052700083F83E20FB68002283F83C20FB681B6813
:10528000DA68FB681B6842F48072DA60FB681B68AE
:105290005A69FB681B6842F001025A61FB681B688F
:1052A000DA68FB681B6842F02002DA6000231846C7
:1052B0001437BD4680BC704780B483B000AF7860BF
:1052C0007B681B68DA687B681B6822F49072DA607E
:1052D0007B681B685A697B681B6822F001025A616F
:1052E0007B681B6B012B07D17B681B68DA687B68C6
:1052F0001B6822F01002DA607B68202283F83E20CF
:105300007B6800221A6300BF0C37BD4680BC704723
:1053100080B584B000AF78607B689B6BFB60FB68F6
:105320000022DA85FB680022DA84F868FFF777FF4D
:1053300000BF1037BD4680BD80B485B000AF786037
:105340007B6893F83D30DBB2212B3ED17B689B68B4
:10535000B3F5805F14D17B681B69002B10D17B688B
:105360001B6AFB60FB681B881A467B681B68C2F3DC
:1053700008025A607B681B6A9A1C7B681A6208E004
:105380007B681B6A591C7A6811621A787B681B68F3
:105390005A607B68DB8C9BB2013B9BB27A681946F2
:1053A000D184002B0FD17B681B68DA687B681B688F
:1053B00022F08002DA607B681B68DA687B681B6811
:1053C00042F04002DA60002300E00223184614375E
:1053D000BD4680BC704780B582B000AF78607B6806
:1053E0001B68DA687B681B6822F04002DA607B6821
:1053F000202283F83D207868FFF708FF0023184635
:105400000837BD4680BD80B586B000AF78607B6848
:1054100093F83E30DBB2222B40F099807B689B688A
:10542000B3F5805F17D17B681B69002B13D1002374
:105430007B617B689B6A3B617B681B685B689BB296
:10544000C3F308039AB23B691A807B689B6A9A1C73
:105450007B689A6226E07B689B6A7B6100233B61E4
:105460007B689B68B3F5805F07D07B689B68002BE7
:105470000AD17B681B69002B06D17B681B685B68BF
:10548000DAB27B691A7008E07B681B685B68DBB284
:1054900003F07F03DAB27B691A707B689B6A5A1C3F
:1054A0007B689A627B68DB8D9BB2013B9BB27A681A
:1054B0001946D185002B48D17B681B68DA687B6868
:1054C0001B6822F02002DA607B681B68DA687B6860
:1054D0001B6822F48072DA607B681B685A697B68FB
:1054E0001B6822F001025A617B68202283F83E206B
:1054F0007B681B6B012B23D17B6800221A637B68BE
:105500001B68DA687B681B6822F01002DA607B682F
:105510001B681B6803F01003102B0AD10023FB60EB
:105520007B681B681B68FB607B681B685B68FB60B3
:10553000FB687B689B8D19467868FFF779FE02E06F
:105540007868FCF7A7F8002302E0002300E00223BC
:1055500018461837BD4680BD80B584B000AF78606E
:105560007B681B681B6923F440517B68DA687B68A1
:105570001B680A431A617B689A687B681B691A4337
:105580007B685B691A437B68DB691343BB607B689C
:105590001B68DB6823F4164323F00C037A68126857
:1055A000B9680B43D3607B681B685B6923F4407167
:1055B0007B689A697B681B680A435A617B681B6831
:1055C000574A934204D07B681B68564A934203D1E2
:1055D000FEF7D6FDF86002E0FEF7B0FDF8607B68EC
:1055E000DB69B3F5004F4CD1FA6813469B001344B6
:1055F0009A001A447B685B685B00B2FBF3F34A4A8B
:10560000A2FB03235B091901FA6813469B001344AC
:105610009A001A447B685B685B00B2FBF3F2424B72
:10562000A3FB02035B09642000FB03F3D31ADB0036
:1056300032333D4AA2FB03235B095B0003F4F8739A
:105640001944FA6813469B0013449A001A447B6875
:105650005B685B00B2FBF3F2334BA3FB02035B0915
:10566000642000FB03F3D31ADB0032332E4AA2FB83
:1056700003235B0903F007027B681B680A449A60F6
:105680004AE0FA6813469B0013449A001A447B6868
:105690005B689B00B2FBF3F3234AA2FB03235B0985
:1056A0001901FA6813469B0013449A001A447B6858
:1056B0005B689B00B2FBF3F21B4BA3FB02035B098D
:1056C000642000FB03F3D31A1B013233164AA2FBFA
:1056D00003235B0903F0F0031944FA6813469B00A7
:1056E00013449A001A447B685B689B00B2FBF3F298
:1056F0000D4BA3FB02035B09642000FB03F3D31AE9
:105700001B013233084AA2FB03235B0903F00F029B
:105710007B681B680A449A6000BF1037BD4680BD95
:1057200000100140001401401F85EB5180B400AF10
:1057300000BFBD4680BC704780B483B000AF7860C6
:105740007B6803F108027B685A607B684FF0FF3288
:105750009A607B6803F108027B68DA607B6803F17A
:1057600008027B681A617B6800221A6000BF0C3750
:10577000BD4680BC704780B483B000AF78607B6862
:1057800000221A6100BF0C37BD4680BC704780B450
:1057900085B000AF786039607B685B68FB603B6810
:1057A000FA685A60FB689A683B689A60FB689B6875
:1057B0003A685A60FB683A689A603B687A681A618E
:1057C0007B681B685A1C7B681A6000BF1437BD4693
:1057D00080BC704780B485B000AF786039603B68AA
:1057E0001B68BB60BB68B3F1FF3F03D17B681B69DB
:1057F000FB600CE07B680833FB6002E0FB685B68E1
:10580000FB60FB685B681B68BA689A42F6D2FB686B
:105810005A683B685A603B685B683A689A603B68C4
:10582000FA689A60FB683A685A603B687A681A615D
:105830007B681B685A1C7B681A6000BF1437BD4622
:1058400080BC704780B485B000AF78607B681B690E
:10585000FB607B685B687A6892689A607B689B688B
:105860007A6852685A60FB685B687A689A4203D12A
:105870007B689A68FB685A607B6800221A61FB6843
:105880001B685A1EFB681A60FB681B6818461437B1
:10589000BD4680BC7047000080B584B000AF786022
:1058A00039607B68FB60FB68002B0AD14FF0500326
:1058B00083F31188BFF36F8FBFF34F8FBB6000BFBF
:1058C000FEE703F023FDFB681A68FB68DB6BF968F1
:1058D000096C01FB03F31A44FB685A60FB68002261
:1058E0009A63FB681A68FB689A60FB681A68FB6831
:1058F000DB6B013BF968096C01FB03F31A44FB689D
:10590000DA60FB68FF2283F84420FB68FF2283F8FB
:1059100045203B68002B14D1FB681B69002B1AD073
:10592000FB681033184601F01BFD0346002B12D014
:105930000C4B4FF080521A60BFF34F8FBFF36F8F45
:1059400009E0FB6810331846FFF7F6FEFB682433C6
:105950001846FFF7F1FE03F009FD01231846103742
:10596000BD4680BD04ED00E080B58EB002AFF860AA
:10597000B9607A603B60FB68002B0AD14FF050039E
:1059800083F31188BFF36F8FBFF34F8FBB6200BFEC
:10599000FEE73B68002B0AD14FF0500383F31188D8
:1059A000BFF36F8FBFF34F8F7B6200BFFEE77B6853
:1059B000002B02D0BB68002B01D0012300E00023A4
:1059C000002B0AD14FF0500383F31188BFF36F8F80
:1059D000BFF34F8F3B6200BFFEE77B68002B02D115
:1059E000BB68002B01D1012300E00023002B0AD16A
:1059F0004FF0500383F31188BFF36F8FBFF34F8FC6
:105A0000FB6100BFFEE750237B617B69502B0AD00E
:105A10004FF0500383F31188BFF36F8FBFF34F8FA5
:105A2000BB6100BFFEE73B68FB62FB6A002B0DD049
:105A3000FB6A012283F8462097F83820FB6A00931E
:105A400013467A68B968F86800F043F8FB6A1846AC
:105A50003037BD4680BD80B58AB002AFF860B9600E
:105A60001346FB71FB68002B0AD14FF0500383F300
:105A70001188BFF36F8FBFF34F8F3B6100BFFEE70D
:105A8000BB68002B02D10023FB6104E0FB68BA680D
:105A900002FB03F3FB61FB695033184603F06EF918
:105AA000B861BB69002B0FD0BB6950337B61BB6908
:105AB000002283F84620FA79BB69009313467A697D
:105AC000B968F86800F005F8BB6918462037BD468C
:105AD00080BD80B584B000AFF860B9607A60FB70BB
