:020000040800F2
:1000000000000220CD190108350900083B0900084D
:1000100041090008470900084D09000800000000D8
:1000200000000000000000000000000051840008F3
:100030005309000800000000318600087986000896
:100040001D1A01081D1A01081D1A01081D1A0108B0
:100050001D1A01081D1A01081D1A01081D1A0108A0
:100060001D1A01081D1A01081D1A01081D1A010890
:100070001D1A01081D1A01081D1A01081D1A010880
:100080001D1A01081D1A01081D1A01081D1A010870
:100090001D1A01081D1A01081D1A01081D1A010860
:1000A0001D1A01081D1A01081D1A01081D1A010850
:1000B0001D1A01081D1A0108610900081D1A01080E
:1000C0001D1A01081D1A01081D1A01081D1A010830
:1000D0001D1A01081D1A0108750900088909000880
:1000E0001D1A01081D1A01081D1A01081D1A010810
:1000F0001D1A01081D1A01081D1A01081D1A010800
:100100001D1A01081D1A01081D1A01081D1A0108EF
:100110001D1A01081D1A01081D1A01081D1A0108DF
:100120001D1A01081D1A01081D1A01081D1A0108CF
:100130001D1A01089D0900081D1A01081D1A010851
:100140001D1A01081D1A01081D1A01081D1A0108AF
:100150001D1A01081D1A01081D1A01081D1A01089F
:100160001D1A01081D1A01081D1A01081D1A01088F
:100170001D1A01081D1A01081D1A010800000000BF
:040180001D1A01083B
:1001900010B5054C237833B9044B13B10448AFF3C1
:1001A00000800123237010BD7800002000000000B3
:1001B000582A010808B5034B1BB103490348AFF3A4
:1001C000008008BD000000007C000020582A0108C3
:1001D00053B94AB9002908BF00281CBF4FF0FF31AE
:1001E0004FF0FF3000F076B9ADF1080C6DE904CEA8
:1001F00000F006F8DDF804E0DDE9022304B0704702
:100200002DE9F047089E0D4604468846002B4DD147
:100210008A42944668D9B2FA82F252B101FA02F3E4
:10022000C2F1200120FA01F10CFA02FC41EA0308B4
:1002300094404FEA1C41B8FBF1F71FFA8CFE01FB1A
:10024000178807FB0EF0230C43EA084398420AD9AB
:100250001CEB030307F1FF3580F01E81984240F24A
:100260001B81023F63441B1AB3FBF1F001FB103307
:1002700000FB0EFEA4B244EA0344A6450AD91CEBD7
:10028000040400F1FF3380F00981A64540F20681A5
:10029000644402380021A4EB0E0440EA07401EB17A
:1002A0000023D440C6E90043BDE8F0878B4208D95B
:1002B000002E00F0EE800021C6E900050846BDE8EA
:1002C000F087B3FA83F100294AD1AB4202D38242CC
:1002D00000F2FC80841A65EB030301209846002E8F
:1002E000E2D0C6E90048DFE702B9FFDEB2FA82F2E7
:1002F000002A40F09180A1EB0C0001214FEA1C473D
:100300001FFA8CFEB0FBF7F307FB1300250C45EA40
:1003100000450EFB03F0A84208D91CEB050503F1CC
:10032000FF3802D2A84200F2CE8043462D1AB5FB18
:10033000F7F007FB10550EFB00FEA4B244EA05449B
:10034000A64508D91CEB040400F1FF3502D2A645EE
:1003500000F2B6802846A4EB0E0440EA03409EE774
:10036000C1F120078B4022FA07FC4CEA030C25FA66
:1003700007FA4FEA1C49BAFBF9F820FA07F309FB20
:1003800018AA8D401FFA8CFE1D4300FA01F308FBEA
:100390000EF02C0C44EA0A44A04202FA01F20BD9F6
:1003A0001CEB040408F1FF3A80F08880A04240F280
:1003B0008580A8F102086444241AB4FBF9F009FB13
:1003C000104400FB0EFEADB245EA0444A64508D930
:1003D0001CEB040400F1FF356CD2A6456AD9023843
:1003E000644440EA0840A0FB0295A4EB0E04AC4232
:1003F000C846AE4656D353D0002E69D0B3EB0802A0
:1004000064EB0E0422FA01F304FA07F71F43CC4011
:10041000C6E90074002147E70CFA02FCC2F1200192
:1004200025FA01F34FEA1C4720FA01F195400D43EC
:10043000B3FBF7F107FB11331FFA8CFE280C40EADF
:10044000034001FB0EF3834204FA02F408D91CEBCB
:10045000000001F1FF382FD283422DD902396044C8
:10046000C01AB0FBF7F307FB1300ADB245EA004535
:1004700003FB0EF0A84208D91CEB050503F1FF3879
:1004800016D2A84214D9023B6544281A43EA014116
:1004900038E73146304607E72F46E4E61846F9E6E6
:1004A0004B45A9D2B9EB020865EB0C0E0138A3E766
:1004B0004346EAE7284694E74146D1E7D0467BE742
:1004C0006444023847E7023B65442FE7084606E7E5
:1004D0003146E9E6704700BF80B500AF02F09AFAF6
:1004E00000F02CF800F0C4F800F098F800F06CF878
:1004F00001220B490B4803F074FE01220A490B4804
:1005000003F06FFE06F0CEFF094A0021094807F00C
:1005100057F80346084A136006F0F6FFFEE700BFEF
:1005200020010020D800002021010020940000209C
:10053000DC4C0108890700081C01002080B592B03E
:1005400000AF07F1180330220021184611F0AAFA73
:100550003B1D00221A605A609A60DA601A6101231A
:10056000BB610123FB6102233B634FF480037B6388
:100570000823BB63F023FB6302233B6405237B64F6
:1005800007F11803184602F0A7FA0346002B01D022
:1005900000F020F90F237B600223BB600023FB6087
:1005A0004FF4A0533B614FF480537B613B1D03210B
:1005B000184602F0DFFC0346002B01D000F00AF9D8
:1005C00000BF4837BD4680BD80B500AF114B124A11
:1005D0001A60104B4FF4E1325A600E4B00229A60C1
:1005E0000C4B0022DA600B4B00221A61094B0C22E3
:1005F0005A61084B00229A61064B0022DA610548D5
:1006000003F010FD0346002B01D000F0E3F800BF1B
:1006100080BD00BF940000200044004080B500AFC2
:10062000114B124A1A60104B4FF4E1325A600E4BD4
:1006300000229A600C4B0022DA600B4B00221A61F8
:10064000094B0C225A61084B00229A61064B00228A
:10065000DA61054803F0E6FC0346002B01D000F008
:10066000B9F800BF80BD00BFD8000020004800409E
:1006700080B58CB000AF07F11C0300221A605A60ED
:100680009A60DA601A610023BB613C4B1B6B3B4AEA
:1006900043F004031363394B1B6B03F00403BB618A
:1006A000BB6900237B61354B1B6B344A43F08003ED
:1006B0001363324B1B6B03F080037B617B69002368
:1006C0003B612E4B1B6B2D4A43F0010313632B4BF5
:1006D0001B6B03F001033B613B690023FB60274B6D
:1006E0001B6B264A43F002031363244B1B6B03F07E
:1006F0000203FB60FB680023BB60204B1B6B1F4A9F
:1007000043F0080313631D4B1B6B03F00803BB602E
:10071000BB6800237B60194B1B6B184A43F04003F6
:100720001363164B1B6B03F040037B607B68002256
:1007300044F28101124803F011F94FF40053FB61B8
:100740004FF488133B6200237B6207F11C031946B8
:100750000C4802F065FF44F28103FB6101233B6218
:1007600000237B620023BB6207F11C031946044887
:1007700002F056FF00BF3037BD4680BD0038024052
:10078000000402400008024080B582B000AF7860EB
:1007900000F06CFE044808F069FA01228021034849
:1007A00003F0DCF8FEE700BF6C32002000040240DA
:1007B00080B582B000AF78607B681B68044A9342C2
:1007C00001D102F049F900BF0837BD4680BD00BF26
:1007D0000008004080B400AF72B600BFFEE7000022
:1007E00080B582B000AF0346FB71002201214FF4B7
:1007F000806004F042FB0346084A1360074B1B6805
:10080000002B05D1064B24220649074811F052F966
:100810004FF4E13318460837BD4680BD240100205F
:10082000F02D0108002E0108682E010880B582B065
:1008300000AF03463960FB71F91D01230122064810
:1008400003F03DFCF91D01230122044803F037FCAD
:1008500000BF0837BD4680BDD800002094000020AE
:1008600080B584B000AF78600023FB7300BF084BF5
:100870001B6807F10F014FF0FF32184604F0A4FE89
:100880000346012BF3D1FB7B18461037BD4680BDD4
:100890002401002090B587B000AFF860B9607A609D
:1008A00000237B610AE0BA687B69D418F868FFF717
:1008B000D7FF034623707B6901337B617A697B68CC
:1008C0009A42F0D37B6818461C37BD4690BD0000A5
:1008D00080B584B000AF78607B68124A93421CD127
:1008E000114B1B78FB7301220F490E4803F079FC72
:1008F0000E4B1B68002B10D00C4B186807F10F0132
:100900000023012204F03AFD0346012B05D0084BD9
:100910001B6843F48033064A136000BF1037BD469E
:1009200080BD00BF94000020210100202401002090
:100930002801002080B400AFFEE780B400AFFEE7DE
:1009400080B400AFFEE780B400AFFEE780B400AF34
:10095000FEE780B400AF00BFBD4680BC704700001A
:1009600080B500AF024803F081F900BF80BD00BF31
:100970002C01002080B500AF024803F063FC00BFEB
:1009800080BD00BF9400002080B500AF024803F096
:1009900059FC00BF80BD00BFD800002080B500AF6B
:1009A000024801F092FA00BF80BD00BF183200205B
:1009B00080B582B000AF00237B60124B5B6C114AA4
:1009C00043F4804353640F4B5B6C03F480437B60C0
:1009D0007B6800233B600B4B1B6C0A4A43F080533F
:1009E0001364084B1B6C03F080533B603B68002290
:1009F0000F216FF0010002F0E8FD00BF0837BD468F
:100A000080BD00BF0038024080B58CB000AF786078
:100A100007F11C0300221A605A609A60DA601A61BA
:100A20007B681B683A4A934234D10023BB61394B3F
:100A30001B6C384A43F400331364364B1B6C03F4CD
:100A40000033BB61BB6900237B61324B1B6B314AB6
:100A500043F0080313632F4B1B6B03F008037B6108
:100A60007B696023FB6102233B6200237B620323DB
:100A7000BB620723FB6207F11C031946264802F0FC
:100A8000CFFD00220521262002F09FFD262002F046
:100A9000B8FD39E07B681B68204A934234D10023BB
:100AA0003B611C4B1B6C1B4A43F480231364194BA2
:100AB0001B6C03F480233B613B690023FB60154BF7
:100AC0001B6B144A43F008031363124B1B6B03F0B8
:100AD0000803FB60FB684FF44073FB6102233B6239
:100AE00000237B620323BB620723FB6207F11C0325
:100AF0001946094802F094FD00220521272002F042
:100B000064FD272002F07DFD00BF3037BD4680BD6B
:100B10000044004000380240000C02400048004001
:100B200080B58EB000AF78600023FB620023BB620B
:100B30000023FB60334B1B6C324A43F00403136405
:100B4000304B1B6C03F00403FB60FB6807F11002E1
:100B500007F114031146184602F052FC3B6AFB628F
:100B6000FB6A002B03D102F007FC786304E002F07B
:100B700003FC03465B007B637B6B234AA2FB0323DE
:100B80009B0C013BBB62214B214A1A601F4B40F278
:100B9000E732DA601D4ABB6A53601C4B00221A61BF
:100BA0001A4B00229A60194B00229A61174802F0F2
:100BB00097FF034687F8333097F83330002B1BD16B
:100BC000124802F0E5FF034687F8333097F83330D8
:100BD000002B11D11E2002F014FD7B680F2B08D8CA
:100BE000002279681E2002F0F0FC0A4A7B6813603C
:100BF00002E0012387F8333097F83330184638374E
:100C0000BD4680BD0038024083DE1B432C0100201E
:100C1000000800400000002080B58EB000AF786072
:100C200007F1240300221A605A609A60DA601A61A0
:100C30007B681B68594A934240F0AC8000233B62BA
:100C4000574B1B6B564A43F000731363544B1B6B9B
:100C500003F000733B623B6A0023FB61504B1B6B4C
:100C60004F4A43F0806313634D4B1B6B03F080636B
:100C7000FB61FB690023BB61494B1B6B484A43F096
:100C800000631363464B1B6B03F00063BB61BB69DE
:100C900000237B61424B1B6B414A43F00403136307
:100CA0003F4B1B6B03F004037B617B6900233B61BB
:100CB0003B4B1B6B3A4A43F001031363384B1B6BEE
:100CC00003F001033B613B690023FB60344B1B6B6A
:100CD000334A43F002031363314B1B6B03F00203EF
:100CE000FB60FB680023BB602D4B1B6B2C4A43F061
:100CF000400313632A4B1B6B03F04003BB60BB68CC
:100D000032237B620223BB620023FB6203233B632B
:100D10000B237B6307F124031946224802F080FC71
:100D200086237B620223BB620023FB6203233B63B7
:100D30000B237B6307F1240319461B4802F070FC68
:100D40004FF400537B620223BB620023FB62032348
:100D50003B630B237B6307F124031946134802F01E
:100D60005FFC4FF420537B620223BB620023FB62D3
:100D700003233B630B237B6307F1240319460C48D1
:100D800002F04EFC002205213D2002F01EFC3D2019
:100D900002F037FC00BF3837BD4680BD00800240FE
:100DA00000380240000802400000024000040240F7
:100DB0000018024080B582B000AF7860044B1B6819
:100DC000184606F01FFF00BF0837BD4680BD00BFB4
:100DD0001432002080B590B000AF78600023BB6370
:100DE0005D4B5E4A1A605C4B01225A605A4B4FF4CD
:100DF00080429A60584B4FF40062DA60564B0022F2
:100E00001A8200233B7380237B73E123BB7300238F
:100E1000FB7300233B7400237B744F4A07F10C03E0
:100E200053614D4B01229A614B4B0022DA614A4BD0
:100E30004FF400021A62484800F07AFC034687F833
:100E40003F3097F83F30002B08D17B6893F82F3064
:100E500043F00403DAB27B6883F82F200423404A6E
:100E600040493D4800F0F0FD04233F4A3F493A48DD
:100E700000F051FE7B68062283F82820364B5B6920
:100E80001A787B6883F82920334B5B695A787B6832
:100E900083F82A20304B5B699A787B6883F82B2093
:100EA0002D4B5B69DA787B6883F82C202A4B5B69D1
:100EB0001A797B6883F82D20274B5B695A797B6808
:100EC00083F82E207B6840F2DC52DA847B6893F84A
:100ED0002F3043F00A03DAB27B6883F82F20002218
:100EE0000121012006F08CFD0346214A136007F121
:100EF000140324220021184610F0D4FD1D4B7B6101
:100F00004FF4AF73BB623023FB6207F114031A4640
:100F10007968194806F054FB0F4801F01AF907F1F7
:100F200038031A461D210C4801F045F8BB6B43F00D
:100F30000B03BB63BB6B1A461D21074801F0A3F8E6
:100F400007F138031A461D21034801F034F800BFA9
:100F50004037BD4680BD00BF1832002000800240EF
:100F6000441A0020F40100207402002074010020C3
:100F700014320020902E01081D12000880B58AB09E
:100F800000AF786039604B4BDB6A9B68FB610023E4
:100F90007B6100233B610023FB600023BB60454B6A
:100FA000DB6ABB6100233B613B683B625AE0BB6983
:100FB0001B68002B03DAF82387F827305CE03B6AD4
:100FC0005B89FB600023BB602FE0FA693B69D018A6
:100FD0003B6A5A68BB68D1183B69C3F5BE630433EA
:100FE0001A4610F051FDBB69DB68BB61BB691B6829
:100FF000002B03DAF82387F827303DE0BB699B68B4
:10100000FB613A69FB681344A3F2F453FB60BA68CE
:101010003B69D31A03F2F453BB607A693B69D31A74
:1010200003F2F4537B6100233B61FA683B6913448C
:1010300040F2F4529342C8D8FA693B69D0183B6A2F
:101040005A68BB681344FA68194610F01DFD3A69E6
:10105000FB6813443B617A69FB6813447B613B6A1C
:101060001B683B623B6A002BA1D17969114800F0F3
:10107000BDFD002387F827300E4B1B6803F5805316
:101080005B6903F02003002B0DD00A4B1B6803F5AE
:1010900080531A4620235361064B1B6803F5805387
:1010A0001A460023536097F9273018462837BD4663
:1010B00080BD00BF1832002080B58CB000AF7860D2
:1010C0000023FB620023BB620023FB810023FB6142
:1010D0000023BB6100237B6100233B614E4800F08D
:1010E0006DFE0346002B01D0002390E04A4BDB6BE2
:1010F000FB81494B1B6C7B62FB89002B06D0FB8973
:1011000003221946042008F0F9FDF862FB6A002B5F
:101110004BD0414B1B6B3B620023FB61FB6ABB6204
:1011200040E0BB6A5B897B610023BB6121E0BB6A55
:101130005A68BB69D0187A6AFB69D118FB69C3F594
:10114000BE6304331A4610F09FFC3B6ADB683B62C7
:101150003B6A9B687B62FA697B691344A3F2F45390
:101160007B61BA69FB69D31A03F2F453BB610023B4
:10117000FB617A69FB69134440F2F4529342D6D87A
:10118000BB6A5A68BB69D0187A6AFB6913447A69EA
:10119000194610F079FCFA697B691344FB61BB6A5C
:1011A0001B68BB62BB6A002BBBD11B4B1B6B3B623A
:1011B00000233B610BE03B6A1B6843F000423B6A43
:1011C0001A603B6ADB683B623B6901333B61124B4F
:1011D0009B6B3A699A42EED30F4B00229A630E4BF7
:1011E0001B6803F580535B6903F08003002B0DD06F
:1011F000094B1B6803F580531A4680235361064B45
:101200001B6803F580531A4600239360FB6A184657
:101210003037BD4680BD00BF1832002080B584B095
:1012200000AF78607B68FB60124B1B684FF0FF31AA
:10123000184606F081FC0346002BF5D10E4810F04D
:101240006BFBF868FFF738FFB860BB68002B0AD06B
:10125000FB681B69F968B86898470346002B02D001
:10126000B86809F0C3F8044810F065FBBB68002BB0
:10127000E4D1D9E71432002034BD002080B582B01B
:1012800000AF78607B68002B06D10E4B40F23B220A
:101290000D490E4810F00EFC7B68732283F8302055
:1012A0007B68742283F831207B68094A5A617B6825
:1012B000084A9A617868FFF78DFD002318460837C1
:1012C000BD4680BD982E0108B42E0108C42E010829
:1012D0009DFD00087D0F000880B500AF01F0CEFB3A
:1012E0000346184680BD000080B584B000AF78602A
:1012F0000023BB607B68FB6007F108031A460121ED
:10130000164800F058FEBB6803F00403BB60FB689E
:101310001B6893F82F3003F00403002B08D1BB683F
:10132000002B05D0FB681B68184608F02BFC11E069
:10133000FB681B6893F82F309B0803F00103DBB2B6
:10134000002B07D0BB68002B04D1FB681B68184634
:1013500008F043FCC82006F0DDF9CDE71832002084
:1013600080B584B000AF78600023FB600023BB60D1
:101370007B6893F82F309B0803F00103DBB2002B4E
:101380005DD0344B5B68002B3FD04FF4805200217E
:10139000304800F078FE01F071FB0346FB6007F176
:1013A00008031A4601212B4800F005FE01F066FBF8
:1013B0000246FB68D31AB3F57A7F28D8BB6803F0DE
:1013C0002003002BEBD007F108031A461021214817
:1013D00000F0F1FDBB6803F00403002B04D01D4BAB
:1013E0004FF40062DA6002E01A4B0022DA60BB6858
:1013F00003F00203002B03D0164B00229A6016E084
:10140000144B4FF480429A6011E000BF00E000BF2F
:10141000104BDB68DB089AB20E4B9B685B089BB2F3
:1014200013439BB21A4600210A4800F02CFE00210B
:10143000084800F0EDFE074800F08BFE02E005488A
:1014400000F0B6FE786800F007F800BF1037BD4620
:1014500080BD00BF1832002080B483B000AF786038
:1014600000BF0C37BD4680BC7047000080B584B01B
:1014700004AFA04BA9221A709E4BFE225A709D4BBE
:10148000BF229A709B4BE022DA709B4BFF221A70AE
:10149000994BFF225A70984BFF229A70964B00226C
:1014A000DA70964B00221A70944B00225A70934BBC
:1014B00000229A70914B0022DA700021002007F080
:1014C00053FD8C4B1B781A068A4B5B781B041A431E
:1014D000884B9B781B021343864AD27813431A0623
:1014E000844B1B781906834B5B781B041943814B93
:1014F0009B781B020B437F49C9780B431B0203F403
:101500007F031A437B4B1B7819067A4B5B781B04CD
:101510001943784B9B781B020B437649C9780B43E0
:101520001B0A03F47F431A43724B1B781906714B55
:101530005B781B0419436F4B9B781B020B436D496F
:10154000C9780B431B0E13436D4A13606A4B1B781B
:101550001A06694B5B781B041A43674B9B781B0286
:101560001343654AD27813431A06634B1B78190656
:10157000614B5B781B0419435F4B9B781B020B4349
:101580005D49C9780B431B0203F47F031A435A4B8E
:101590001B781906584B5B781B041943564B9B78F4
:1015A0001B020B435449C9780B431B0A03F47F43C6
:1015B0001A43514B1B7819064F4B5B781B04194398
:1015C0004D4B9B781B020B434B49C9780B431B0EB9
:1015D00013434C4A1360494B1B781A06474B5B7800
:1015E0001B041A43454B9B781B021343434AD27892
:1015F00013431A06414B1B781906404B5B781B04BA
:1016000019433E4B9B781B020B433C49C9780B4363
:101610001B0203F47F031A43384B1B781906374B20
:101620005B781B041943354B9B781B020B433349F2
:10163000C9780B431B0A03F47F431A432F4B1B78D3
:1016400019062E4B5B781B0419432C4B9B781B020D
:101650000B432A49C9780B431B0E13432A4A1360D4
:101660002A4B02932A4B019300230093264B254AD1
:101670002349284808F030F9264808F00FFA254B8E
:1016800093F82F309B0803F00103DBB2002B03D04B
:10169000204808F011FA02E01E4808F051FA1E49ED
:1016A0001C4808F0BAFA00220121012006F0A8F92E
:1016B00003461A4A13601A4B164A1A60174B1B68E6
:1016C000174A536024220021164810F0EBF9154BFD
:1016D000154A1A60134B4FF480625A61114B102265
:1016E0009A61104A0E49114805F06AFF00BFBD46D5
:1016F00080BD00BFAC320020B0320020B4320020E8
:10170000A0320020A4320020A8320020918E0008D0
:101710007D1200086C320020611300086032002046
:1017200064320020B8320020EC2E0108E9120008D3
:1017300080B588B000AF78600023FB610023FB60B8
:10174000A34BBB6100237B6100233B617B68002BC3
:1017500001D1012373E17B6893F84430DBB2002BA5
:1017600006D17B68002283F845207868FFF754FA99
:101770000023BB60974B5B6C964A43F480435364F1
:10178000944B5B6C03F48043BB60BB68924B5B681B
:10179000914A23F4000353608F4B5A687B681B6A9D
:1017A0008D4913434B607B681B6803F580531B68AE
:1017B0007A68126843F0010302F58052136001F069
:1017C0005DF9786111E001F059F902467B69D31A9D
:1017D000B3F5FA7F09D97B68032283F844207B683C
:1017E000002283F84520032329E17B681B6803F569
:1017F00080531B6803F00103002BE4D17B681B6856
:101800001B69FB61FB6923F01C03FB6101F0AAFD6E
:10181000B861BB69714A934208D9BB69704A934267
:1018200004D8FB6943F00803FB611AE0BB696C4A0A
:10183000934208D9BB69664A934204D2FB6943F0DC
:101840000C03FB610DE0BB69614A934203D3BB69A2
:10185000644A934204D9FB6943F00403FB6100E04E
:1018600000BF7B681B68FA691A614FF400420021CF
:10187000786800F008FC0346002B0BD001233B6185
:101880003969786800F0BEFD7B68012283F8442046
:101890000123D4E0FF2001F0FBF87B685B68002B9C
:1018A00000F0A28001F0EAF8786107F10C031A4613
:1018B0000121786800F07FFB01F0E0F802467B69C7
:1018C000D31A41F2883293420FD901233B6139691F
:1018D000786800F097FD7B68012283F844207B68DC
:1018E000002283F845200323A9E0FB6803F00403EA
:1018F000002BDAD04FF480520021786800F0C3FB4F
:101900000346002B0BD001233B613969786800F056
:1019100079FD7B68012283F8442001238FE001F0E8
:10192000ADF8786107F10C031A460121786800F0E0
:1019300042FB01F0A3F802467B69D31A41F28832D8
:1019400093420FD901233B613969786800F05AFD51
:101950007B68012283F844207B68002283F84520BD
:1019600003236CE0FB6803F02003002BDAD007F1BF
:101970000C031A461021786800F01DFB0346002B6B
:101980000BD001233B613969786800F03BFD7B682F
:10199000012283F84420012351E0FB6803F0040393
:1019A000002B04D07B684FF40062DA6002E07B68B1
:1019B0000022DA60FB6803F00203002B03D07B688F
:1019C00000229A6032E07B684FF480429A602DE0FA
:1019D000008793030038024000380140FF2C31019A
:1019E000BF0E1602FFE0F5057B68DB68DB089AB2E4
:1019F0007B689B685B089BB213439BB21A4600212D
:101A0000786800F040FB0346002B0BD001233B61BC
:101A10003969786800F0F6FC7B68012283F844207D
:101A200001230CE040F6FF7001F032F83969786864
:101A300000F0E8FC7B68012283F84420002318466C
:101A40002037BD4680BD00BF80B487B000AFF860CE
:101A5000B9607A603B6000237B61FB6893F8453096
:101A6000012B01D1022351E0FB68012283F84520BC
:101A7000FB68022283F84420FB68BA68DA6200231C
:101A80007B6130E07B695B01BA6813443B613B6971
:101A90004FF480121A607B6940F2F45202FB03F3A8
:101AA0007A6813441A463B699A60FB68DB69002B2D
:101AB00005D13B691B6843F440023B691A603B68EF
:101AC000013B7A699A4208D27B6901335B01BA68AB
:101AD00013441A463B69DA6002E0BA683B69DA608F
:101AE0007B6901337B617A693B689A42CAD3FB68A0
:101AF0001A68BB6802F580521361FB68012283F803
:101B00004420FB68002283F84520002318461C3738
:101B1000BD4680BC704780B487B000AFF860B96044
:101B20007A603B6000237B61FB6893F84530012BB2
:101B300001D1022355E0FB68012283F84520FB68B0
:101B4000022283F84420FB68BA689A6200237B6112
:101B500034E07B695B01BA6813443B613B694FF039
:101B600000421A603B6944F2F4525A607B6940F2C9
:101B7000F45202FB03F37A6813441A463B699A60F5
:101B8000FB689B69012B05D13B695B6823F0004230
:101B90003B695A603B68013B7A699A4208D27B698B
:101BA00001335B01BA6813441A463B69DA6002E00C
:101BB000BA683B69DA607B6901337B617A693B68AB
:101BC0009A42C6D3FB681A68BB6802F58052D3609C
:101BD000FB68012283F84420FB68002283F845203B
:101BE000002318461C37BD4680BC704780B487B0C0
:101BF00000AF7860396000237B610023FB60002325
:101C00003B617B6893F84530012B01D10223CCE086
:101C10007B68012283F845207B68022283F84420F8
:101C20003B68002B09D17B68012283F844207B6844
:101C3000002283F845200123B7E07B68DB6A1B683C
:101C4000002B09DA7B68122283F844207B6800228B
:101C500083F845200123A8E03B6840F2F452934208
:101C600015D93B68534AA2FB03239B0A7B613A6860
:101C7000504BA3FB02139B0A40F2F45101FB03F308
:101C8000D31A002B05D07B6901337B6101E001236E
:101C90007B617B69012B1CD17B68DB6A1A687B68DE
:101CA000DB6A42F040521A607B68DB6A3A68C2F332
:101CB0000C025A607B68DB6A1A687B68DB6A42F058
:101CC00000421A607B68DB6ADB681A467B68DA626E
:101CD0004BE000233B6144E07B68DB6A1A687B6869
:101CE000DB6A22F040521A603B69002B07D17B6807
:101CF000DB6A1A687B68DB6A42F080521A607B6894
:101D0000DB6A40F2F4525A607B69013B3A699A42BD
:101D100016D17B68DB6A1A687B68DB6A42F0005286
:101D20001A607B69244A03FB02F23B68134403F206
:101D3000F453FB607B68DB6AFA68C2F30C025A60FA
:101D40007B68DB6A1A687B68DB6A42F000421A60D3
:101D50007B68DB6ADB681A467B68DA623B690133C1
:101D60003B613A697B699A42B6D37B681B6803F58D
:101D700080535B6903F00403002B0DD07B681B6864
:101D800003F580531A46042353617B681B6803F5EF
:101D900080531A46002353607B68012283F8442055
:101DA0007B68002283F84520002318461C37BD4677
:101DB00080BC70470BB002AC0CFAFFFF80B485B05A
:101DC00000AF78600023FB607B6893F84530012BFF
:101DD00001D1022374E07B68012283F845207B68EF
:101DE000022283F844205AE0FB680133FB607B68E1
:101DF0009B6A1B6803F44073B3F5007F0DD17B68C9
:101E00009A6A7B681A637B6801229A637B689B6A83
:101E1000DB681A467B689A6241E07B689B6A1B68B4
:101E200003F44073002B0BD17B689B6B5A1C7B68BF
:101E30009A637B689B6ADB681A467B689A622EE02D
:101E40007B689A6A7B685A637B689B6B5A1C7B68C9
:101E50009A637B689B6B012B03D17B689A6A7B68D2
:101E60001A637B689B6A1B681B0CC3F30D031A1F64
:101E70007B68DA637B681B6B9A687B681A647B6893
:101E80009B6ADB681A467B689A627B68012283F84A
:101E900044207B68002283F84520002310E07B6803
:101EA0009B6A1B68002B02DBFB68032B9CD97B68B9
:101EB000012283F844207B68002283F84520012317
:101EC00018461437BD4680BC704780B582B000AF5D
:101ED00078607B681B6803F580535B6903F04003FF
:101EE000402B12D17868FEF765FF7B681B6803F50D
:101EF00080531A46402353617B68012283F84420B3
:101F00007B68002283F845201AE07B681B6803F594
:101F100080535B6903F00103012B11D1786800F055
:101F200038F87B681B6803F580531A460123536118
:101F30007B68012283F844207B68002283F84520D7
:101F40007B681B6803F580531A464FF48033536156
:101F50007B681B6803F580535B6903F40043B3F5AA
:101F6000004F12D1786800F01DF87B681B6803F5FC
:101F700080531A464FF4004353617B68012283F873
:101F800044207B68002283F8452000BF0837BD4607
:101F900080BD80B483B000AF786000BF0C37BD4611
:101FA00080BC704780B483B000AF786000BF0C374E
:101FB000BD4680BC704780B586B000AFF8600B4668
:101FC0007A607B8100237B6100233B61FB6893F88F
:101FD0004430DBB2822B01D1022350E0FB68822225
:101FE00083F84420FB681B681B697B617B6903F0F5
:101FF0001C037B61FB681B8ADB029BB27A6913437B
:102000007B617B899B0103F4F8637A6913437B61ED
:102010007B6923F002037B617B6943F001037B61F1
:10202000FB681B687A691A6100F028FD386115E0C9
:1020300000F024FD02463B69D31AB3F5803F09D373
:10204000FB68012283F84420FB68002283F84520C6
:10205000032314E0FB681B681B697B617B6903F049
:102060000103002BE4D1FB681B685B699BB21A4635
:102070007B681A60FB68012283F84420002318461D
:102080001837BD4680BD80B586B000AFF8600B46FE
:102090007A607B8100237B6100233B61FB6893F8BE
:1020A0004430DBB2422B01D102234EE0FB684222D6
:1020B00083F84420FB681B681B697B617B6903F024
:1020C0001C037B61FB681B8ADB029BB27A691343AA
:1020D0007B617B899B0103F4F8637A6913437B611D
:1020E0007B6943F002037B617B6943F001037B6101
:1020F0007B689AB2FB681B685A61FB681B687A6947
:102100001A6100F0BBFC386115E000F0B7FC024634
:102110003B69D31AB3F5803F09D3FB68012283F8EA
:102120004420FB68002283F8452003230DE0FB6870
:102130001B681B697B617B6903F00103002BE4D101
:10214000FB68012283F84420002318461837BD4657
:1021500080BD80B582B000AF78607B6893F8453071
:10216000012B01D102231FE07B68012283F8452067
:102170007B68022283F84420786800F03FFB78688F
:1021800000F076FB786800F001FC786800F0AAFBAC
:10219000786800F0D1FB7B68012283F844207B68DB
:1021A000002283F84520002318460837BD4680BD2D
:1021B00080B582B000AF78607B6893F84530012B22
:1021C00001D102231FE07B68012283F845207B6850
:1021D000022283F84420786800F099FB786800F0C8
:1021E000C0FB786800F061FB786800F0CFFB78688E
:1021F00000F021FB7B68012283F844207B680022E9
:1022000083F84520002318460837BD4680BD0000EE
:1022100080B584B000AF786039600023FB607B68D4
:1022200093F84530012B01D10223E4E07B680122C1
:1022300083F845207B68022283F844203B68002B0A
:1022400000F0B1807B681B681B68FB60FA686C4B10
:102250001340FB603B681A683B685B681A433B6845
:102260009B681A433B68DB681A437B689B681A4388
:102270003B681B691A433B685B691A437B68DB68F0
:102280001A433B689B691A433B68DB691A433B6806
:102290001B6A1A433B685B6A1A433B689B6A134399
:1022A000FA681343FB607B681B68FA681A607B68F6
:1022B0001B681B68FB60012000F0EAFB7B681B6861
:1022C000FA681A603B68DA6A3B681B6B1A433B6822
:1022D0005B6B1A433B689B6B1A433B68DB6B1A438F
:1022E0003B681B6C1A433B685B6C42EA03013B682A
:1022F0009A6C7B681B680A435A607B681B685B6842
:10230000FB60012000F0C4FB7B681B68FA685A6020
:102310007B681B683A68D26C9A607B681B683A6875
:10232000126DDA607B681B689B69FB60FA684FF688
:1023300041731340FB603B685B6D1A043B689B6D07
:102340001A433B68DB6D1A433B681B6E1A433B68BC
:102350005B6E1A433B689B6E1343FA681343FB6042
:102360007B681B68FA689A617B681B689B69FB60E5
:10237000012000F08DFB7B681B68FA689A613B685E
:10238000D96E3B681A6F7B681B680A43DA617B6809
:102390001B68DB69FB60012000F07AFB7B681B682F
:1023A000FA68DA611EE07B681B681B68FB60FB68EB
:1023B00023F49043FB607B689A687B68DB68134377
:1023C000FA681343FB607B681B68FA681A607B68D5
:1023D0001B681B68FB60012000F05AFB7B681B68D0
:1023E000FA681A607B68012283F844207B68002227
:1023F00083F84520002318461037BD4680BD00BF36
:102400000F8120FF80B5B0B000AF78603960002345
:10241000C7F8BC303B68002B07D07B684FF40062E4
:10242000DA607B684FF480429A600023BB6400232B
:10243000FB6400233B6500237B650023BB65002311
:10244000FB657B68DB69002B03D14FF480633B663F
:1024500001E000233B664FF400737B660023BB66FC
:102460000023FB6600233B6700237B670023BB67D9
:102470004023FB670023C7F880300023C7F884306F
:102480000023C7F888300023C7F88C300023C7F832
:1024900090300023C7F894300023C7F89830002309
:1024A000C7F89C308023C7F8A0300023C7F8A430B9
:1024B0000023C7F8A8300023C7F8AC300023C7F8C2
:1024C000B0300023C7F8B4300023C7F8B8307B68B9
:1024D0001B681B68C7F8BC30D7F8BC20AA4B134058
:1024E000C7F8BC30BA6CFB6C1A433B6D1A437B6D6A
:1024F0001A437B689B681A43BB6D1A43FB6D1A43F2
:102500007B68DB681A433B6E1A437B6E1A43BB6ED3
:102510001A43FB6E1A433B6F1343D7F8BC20134397
:10252000C7F8BC307B681B68D7F8BC201A607B6892
:102530001B681B68C7F8BC30012000F0A9FA7B6853
:102540001B68D7F8BC201A607A6FBB6F1A43FB6F09
:102550001A43D7F880301A43D7F884301A43D7F893
:1025600088301A43D7F88C3042EA0301D7F890201C
:102570007B681B680A435A607B681B685B68C7F806
:10258000BC30012000F084FA7B681B68D7F8BC20BF
:102590005A607B681B68D7F894209A607B681B6838
:1025A000D7F89820DA607B681B689B69C7F8BC3055
:1025B000D7F8BC204FF641731340C7F8BC30D7F8AA
:1025C0009C301A04D7F8A0301A43D7F8A4301A4325
:1025D000D7F8A8301A43D7F8AC301A43D7F8B03040
:1025E0001343D7F8BC201343C7F8BC307B681B6883
:1025F000D7F8BC209A617B681B689B69C7F8BC3020
:10260000012000F045FA7B681B68D7F8BC209A616E
:10261000D7F8B410D7F8B8207B681B680A43DA6192
:102620007B681B68DB69C7F8BC30012000F030FA1A
:102630007B681B68D7F8BC20DA610023BB604FF0D1
:102640000073FB6000233B614FF400137B610023A8
:10265000BB610023FB6100233B6200237B620423F8
:10266000BB624FF00073FB624FF480333B634FF467
:1026700080037B634FF40053BB638023FB63002321
:102680003B6400237B647B681B6803F580539B6974
:10269000C7F8BC30D7F8BC203C4B1340C7F8BC305F
:1026A000BA68FB681A433B691A437B691A43BB69E2
:1026B0001A43FB691A433B6A1A437B6A1A43BB6A93
:1026C0001343D7F8BC201343C7F8BC307B681B68A2
:1026D00003F580531A46D7F8BC3093617B681B68BA
:1026E00003F580539B69C7F8BC30012000F0D0F996
:1026F0007B681B6803F580531A46D7F8BC3093619A
:10270000FA6A3B6B1A437B6B1A43BB6B1A43FB6B36
:102710001A433B6C9B001A437B6C13437A68126824
:1027200043F4000302F5805213607B681B6803F5D5
:1027300080531B68C7F8BC30012000F0A9F97B6802
:102740001B6803F580531A46D7F8BC3013607B68CA
:102750009B69012B0DD17B681B6803F58053DB69F6
:102760007A68126843F4803343F0400302F58052E4
:10277000D3617B685B691A460021786800F008F82D
:1027800000BFC037BD4680BD0F8120FF233FDEF86C
:1027900080B487B000AFF860B9607A607B680533B9
:1027A0001B781B027A680432127813437B61BA6883
:1027B000104B13441A467B6913607B6803331B7804
:1027C0001A067B6802331B781B041A437B680133AB
:1027D0001B781B0213437A68127813437B61BA6833
:1027E000054B13441A467B69136000BF1C37BD4676
:1027F00080BC7047408002404480024080B584B075
:1028000000AF78600023FB607B681B681A687B68F8
:102810001B6842F008021A607B681B681B68FB603B
:10282000012000F0D9F87B681B68FA681A6000BFC5
:102830001037BD4680BD80B584B000AF78600023FE
:10284000FB607B681B681A687B681B6822F00802C3
:102850001A607B681B681B68FB60012000F0BCF8F5
:102860007B681B68FA681A6000BF1037BD4680BDE0
:1028700080B584B000AF78600023FB607B681B6884
:102880001A687B681B6842F004021A607B681B6848
:102890001B68FB60012000F09FF87B681B68FA68EA
:1028A0001A6000BF1037BD4680BD80B584B000AF50
:1028B00078600023FB607B681B681A687B681B6874
:1028C00022F004021A607B681B681B68FB60012011
:1028D00000F082F87B681B68FA681A6000BF103746
:1028E000BD4680BD80B483B000AF78607B681B6854
:1028F00003F580539B697A68126843F4005302F52C
:102900008052936100BF0C37BD4680BC704780B4D5
:1029100083B000AF78607B681B6803F580539B69C8
:102920007A68126823F4005302F58052936100BF65
:102930000C37BD4680BC704780B483B000AF786070
:102940007B681B6803F580539B697A68126843F0C3
:10295000020302F58052936100BF0C37BD4680BC74
:10296000704780B483B000AF78607B681B6803F564
:1029700080539B697A68126823F0020302F5805243
:10298000936100BF0C37BD4680BC704780B584B0F2
:1029900000AF78600023FB607B681B6803F5805301
:1029A0009B697A68126843F4801302F58052936140
:1029B0007B681B6803F580539B69FB60012000F076
:1029C0000BF87B681A68FB6802F58052936100BFC0
:1029D0001037BD4680BD000080B485B000AF786080
:1029E0000A4B1B680A4AA2FB03235B0A7A6802FBB4
:1029F00003F3FB6000BFFB685A1EFA60002BF9D19D
:102A000000BF00BF1437BD4680BC704708000020DF
:102A1000D34D621080B500AF0E4B1B680D4A43F4D6
:102A2000007313600B4B1B680A4A43F48063136006
:102A3000084B1B68074A43F480731360032000F0BF
:102A4000B9FD0F20FEF76CF8FDF7B2FF0023184622
:102A500080BD00BF003C024080B400AF054B1B7836
:102A60001A46054B1B681344034A136000BFBD465A
:102A700080BC704704000020DC32002080B400AF2E
:102A8000024B1B681846BD4680BC7047DC320020F4
:102A900080B584B000AF7860FFF7F0FFB8607B6866
:102AA000FB60FB68B3F1FF3F05D00A4B1B781A4669
:102AB000FB681344FB6000BFFFF7E0FF0246BB6802
:102AC000D31AFA689A42F7D800BF00BF1037BD4644
:102AD00080BD00BF0400002080B58AB000AF7860E0
:102AE0007B68002B01D1012336E27B681B6803F071
:102AF0000103002B50D09E4B9B6803F00C03042B6A
:102B00000CD09B4B9B6803F00C03082B12D1984B05
:102B10005B6803F48003B3F5800F0BD1944B1B6803
:102B200003F40033002B36D07B685B68002B32D176
:102B3000012311E27B685A688E4BD2B21A707B680F
:102B40005B68002B13D0FFF799FF386208E0FFF7AE
:102B500095FF02463B6AD31A642B01D90323FBE19C
:102B6000834B1B6803F40033002BF0D014E0FFF715
:102B700085FF386208E0FFF781FF02463B6AD31AFF
:102B8000642B01D90323E7E1794B1B6803F400337D
:102B9000002BF0D100E000BF7B681B6803F002034C
:102BA000002B77D0724B9B6803F00C03002B0BD0EB
:102BB0006F4B9B6803F00C03082B26D16C4B5B68B2
:102BC00003F48003002B20D1694B1B6803F0020340
:102BD000002B05D07B68DB68012B01D00123BBE112
:102BE000634B1B6823F0F8027B681B69F821B9610D
:102BF000B96991FAA1F179617969B1FA81F1C9B242
:102C00008B405B4913430B6044E07B68DB68002B1F
:102C10002AD0594B01221A60FFF730FF386208E0D2
:102C2000FFF72CFF02463B6AD31A022B01D903237C
:102C300092E14F4B1B6803F00203002BF0D04C4B8A
:102C40001B6823F0F8027B681B69F8213961396938
:102C500091FAA1F1F960F968B1FA81F1C9B28B403A
:102C6000434913430B6015E0434B00221A60FFF702
:102C700005FF386208E0FFF701FF02463B6AD31AFE
:102C8000022B01D9032367E1394B1B6803F00203D0
:102C9000002BF0D17B681B6803F00803002B30D0B9
:102CA0007B685B69002B16D0344B01221A60FFF75A
:102CB000E5FE386208E0FFF7E1FE02463B6AD31A00
:102CC000022B01D9032347E1294B5B6F03F0020379
:102CD000002BF0D015E0294B00221A60FFF7CEFE42
:102CE000386208E0FFF7CAFE02463B6AD31A022B9D
:102CF00001D9032330E11E4B5B6F03F00203002B6D
:102D0000F0D17B681B6803F00403002B00F0878080
:102D1000002387F82730164B1B6C03F08053002BE1
:102D200010D10023BB60124B1B6C114A43F080533F
:102D300013640F4B1B6C03F08053BB60BB68012313
:102D400087F827300E4B1B680D4A43F480731360DD
:102D50000B4B1B6803F48073002B22D1084B1B68BC
:102D6000074A43F480731360FFF788FE386212E06D
:102D7000003802400238024000004742800E4742BD
:102D800000700040FFF77AFE02463B6AD31A022B1E
:102D900001D90323E0E0724B1B6803F48073002B1E
:102DA000F0D07B689A686F4BD2B21A707B689B68D0
:102DB000002B15D0FFF762FE38620AE0FFF75EFED7
:102DC00002463B6AD31A41F28832934201D9032367
:102DD000C2E0654B1B6F03F00203002BEED014E042
:102DE000FFF74CFE38620AE0FFF748FE02463B6AF6
:102DF000D31A41F28832934201D90323ACE05A4BF3
:102E00001B6F03F00203002BEED197F82730012B44
:102E100005D1554B1B6C544A23F0805313647B68D7
:102E20009B69002B00F097804F4B9B6803F00C03CD
:102E3000082B61D07B689B69022B46D14B4B00224B
:102E40001A60FFF71BFE386208E0FFF717FE024624
:102E50003B6AD31A642B01D903237DE0424B1B68E4
:102E600003F00073002BF0D13F4B5A68404B1340E6
:102E70007A68D1697A68126A11437A68526A920153
:102E800011437A68D26A120611437A68926A52082C
:102E9000013A12040A43344913434B60334B012275
:102EA0001A60FFF7EBFD386208E0FFF7E7FD024626
:102EB0003B6AD31A642B01D903234DE02A4B1B68CC
:102EC00003F00073002BF0D045E0284B00221A607D
:102ED000FFF7D4FD386208E0FFF7D0FD02463B6AF9
:102EE000D31A642B01D9032336E01F4B1B6803F070
:102EF0000073002BF0D12EE07B689B69012B01D180
:102F0000012329E0184B5B68FB61FB6903F4800235
:102F10007B68DB699A421CD1FB6903F03F027B6846
:102F20001B6A9A4215D1FB699B09C3F308027B68AF
:102F30005B6A9A420DD1FB6903F440327B689B6A5D
:102F40009A4206D1FB6903F070627B68DB6A9A42A1
:102F500001D0012300E0002318462837BD4680BD7C
:102F60000070004070380240003802406000474264
:102F70000080BCF080B586B000AF786039607B68B7
:102F8000002B01D10123D2E06B4B1B6803F00F0330
:102F90003A689A420CD9684B3A68D2B21A70664BBA
:102FA0001B6803F00F033A689A4201D00123BEE088
:102FB0007B681B6803F00203002B20D07B681B6832
:102FC00003F00403002B05D05C4B9B685B4A43F481
:102FD000E05393607B681B6803F00803002B05D067
:102FE000564B9B68554A43F460439360534B9B6830
:102FF00023F0F0027B689B68504913438B607B6829
:103000001B6803F00103002B40D07B685B68012B39
:1030100007D14A4B1B6803F40033002B15D1012361
:1030200085E07B685B68022B07D1444B1B6803F08B
:103030000073002B09D1012379E0404B1B6803F09A
:103040000203002B01D1012371E03C4B9B6823F06C
:1030500003027B685B68394913438B60FFF70EFD01
:1030600078610AE0FFF70AFD02467B69D31A41F254
:103070008832934201D9032359E0304B9B6803F017
:103080000C027B685B689B009A42EBD12A4B1B6861
:1030900003F00F033A689A420CD2274B3A68D2B237
:1030A0001A70254B1B6803F00F033A689A4201D04F
:1030B00001233CE07B681B6803F00403002B08D06D
:1030C0001E4B9B6823F4E0527B68DB681B4913436B
:1030D0008B607B681B6803F00803002B09D0174B3B
:1030E0009B6823F460427B681B69DB001349134330
:1030F0008B6000F02BF80146104B9B6803F0F00347
:10310000F0223A613A6992FAA2F2FA60FA68B2FAE7
:1031100082F2D2B2D3400A4AD35C21FA03F3094ABD
:103120001360094B1B681846FDF7FAFC002318468C
:103130001837BD4680BD00BF003C02400038024049
:10314000004D010808000020000000202DE9B04FCC
:1031500094B000AF00237B640023FB6400233B6436
:103160000023BB647C4B9B6803F00C03082B0DD041
:10317000082B00F2E780002B02D0042B03D0E1E003
:10318000764BBB64E1E0764BBB64DEE0724B5B6880
:1031900003F03F037B64704B5B6803F48003002BF8
:1031A00065D06D4B5B689B090022BB63FA63BB6B08
:1031B000C3F308033B6300237B63D7E90C45224636
:1031C0002B464FF000004FF00001590141EAD26157
:1031D000500102460B462146511A3961294663EBDC
:1031E00001037B614FF000024FF00003D7E904AB0D
:1031F00059468B01514643EA916351468A01D446B0
:10320000B2EB0C08594663EB01094FF000024FF096
:1032100000034FEAC90343EA58734FEAC8029046D5
:103220009946234618EB0303BB602B4649EB030387
:10323000FB604FF000024FF00003D7E9024529463A
:103240004B0220462946044643EAD45301464A022B
:10325000104619467B6C0022BB62FA62D7E90A234A
:10326000FCF7B6FF02460B461346FB645CE03A4BA4
:103270005B689B09002218461146C0F308033B62B5
:1032800000237B62D7E9088942464B464FF0000095
:103290004FF00001590141EAD261500102460B464C
:1032A000C446B2EB0C0A404649468C4663EB0C0B15
:1032B0004FF000024FF000034FEA8B1343EA9A638A
:1032C0004FEA8A12B2EB0A0463EB0B054FF00002DF
:1032D0004FF00003EB0043EA5473E20014461D462E
:1032E0000346E3183B600B4645EB03037B604FF05E
:1032F00000024FF00003D7E9004529468B02204623
:103300002946044643EA945301468A021046194668
:103310007B6C0022BB61FA61D7E90623FCF758FFFA
:1033200002460B461346FB640B4B5B681B0C03F019
:10333000030301335B003B64FA6C3B6CB2FBF3F3B9
:10334000BB6402E0054BBB6400BFBB6C1846503742
:10335000BD46BDE8B08F00BF003802400024F40035
:1033600000127A0080B400AF024B1B681846BD46BD
:1033700080BC70470800002080B582B000AFFFF726
:10338000F1FF01460B4B9B6803F4E0534FF4E0520E
:103390007A607A6892FAA2F23A603A68B2FA82F2F5
:1033A000D2B2D340044AD35C21FA03F3184608375B
:1033B000BD4680BD00380240104D010880B582B086
:1033C00000AFFFF7CFFF01460B4B9B6803F4604350
:1033D0004FF460427A607A6892FAA2F23A603A68F0
:1033E000B2FA82F2D2B2D340044AD35C21FA03F398
:1033F00018460837BD4680BD00380240104D010810
:1034000080B483B000AF786039607B680F221A60A7
:10341000114B9B6803F003027B685A600E4B9B685C
:1034200003F0F0027B689A600B4B9B6803F4E05258
:103430007B68DA60084B9B68DB0803F4E0527B682A
:103440001A61064B1B6803F00F023B681A6000BF4D
:103450000C37BD4680BC704700380240003C02403B
:1034600080B485B000AF78607B6803F00703FB6031
:103470000C4BDB68BB60BA684FF6FF031340BB60C0
:10348000FB681A02BB68134343F0BF6343F4003385
:10349000BB60044ABB68D36000BF1437BD4680BC24
:1034A000704700BF00ED00E080B400AF044BDB6864
:1034B0001B0A03F007031846BD4680BC704700BFD7
:1034C00000ED00E080B483B000AF0346FB7197F9D4
:1034D0000730002B0BDBFB7903F01F02064997F93D
:1034E00007305B09012000FA02F241F8232000BFF7
:1034F0000C37BD4680BC704700E100E080B483B06B
:1035000000AF03463960FB7197F90730002B0ADBE7
:103510003B68DAB20C4997F907301201D2B20B447A
:1035200083F800230AE03B68DAB20849FB7903F02C
:103530000F03043B1201D2B20B441A7600BF0C37C2
:10354000BD4680BC704700BF00E100E000ED00E038
:1035500080B489B000AFF860B9607A60FB6803F0AE
:103560000703FB61FB69C3F10703042B28BF042396
:10357000BB61FB690433062B02D9FB69033B00E006
:1035800000237B614FF0FF32BB6902FA03F3DA4399
:10359000BB681A407B699A404FF0FF317B6901FAA2
:1035A00003F3D9437B680B40134318462437BD46C9
:1035B00080BC704780B582B000AF78607868FFF754
:1035C0004FFF00BF0837BD4680BD80B586B000AF55
:1035D0000346B9607A60FB7300237B61FFF764FFE9
:1035E00078617A68B9687869FFF7B2FF024697F99F
:1035F0000F3011461846FFF781FF00BF1837BD4650
:1036000080BD80B582B000AF0346FB7197F90730EB
:103610001846FFF757FF00BF0837BD4680BD0000C2
:1036200080B487B000AF7860396000237B616FE1C0
:103630003B681A6801217B6901FA03F31340FB60C0
:10364000FB68002B00F061813B685B6803F00303BB
:10365000012B05D03B685B6803F00303022B30D1DC
:103660007B689B683B617B695B00032202FA03F382
:10367000DB433A6913403B613B68DA687B695B0076
:1036800002FA03F33A6913433B617B683A699A6033
:103690007B685B683B6101227B6902FA03F3DB43D1
:1036A0003A6913403B613B685B681B0903F0010208
:1036B0007B6902FA03F33A6913433B617B683A6919
:1036C0005A603B685B6803F00303032B17D07B68E9
:1036D000DB683B617B695B00032202FA03F3DB4397
:1036E0003A6913403B613B689A687B695B0002FA68
:1036F00003F33A6913433B617B683A69DA603B68DC
:103700005B6803F00303022B23D17B69DA087B6833
:10371000083253F822303B617B6903F007039B00BA
:103720000F2202FA03F3DB433A6913403B613B6823
:103730001A697B6903F007039B0002FA03F33A69F5
:1037400013433B617B69DA087B680832396943F8C7
:1037500022107B681B683B617B695B00032202FAD5
:1037600003F3DB433A6913403B613B685B6803F05A
:1037700003027B695B0002FA03F33A6913433B617E
:103780007B683A691A603B685B6803F44033002B3E
:1037900000F0BB800023BB60644B5B6C634A43F466
:1037A00080435364614B5B6C03F48043BB60BB6834
:1037B0005F4A7B699B08023352F823303B617B6987
:1037C00003F003039B000F2202FA03F3DB433A6981
:1037D00013403B617B68574A934231D07B68564A1D
:1037E00093422BD07B68554A934225D07B68544A3C
:1037F00093421FD07B68534A934219D07B68524A48
:10380000934213D07B68514A93420DD07B68504A53
:10381000934207D07B684F4A934201D1082310E0BE
:1038200009230EE007230CE006230AE0052308E045
:10383000042306E0032304E0022302E0012300E066
:1038400000237A6902F00302920093401A463B6912
:1038500013433B6136497B699B0802333A6941F85F
:1038600023203D4B1B683B61FB68DB433A691340F7
:103870003B613B685B6803F48033002B03D03A69FB
:10388000FB6813433B61344A3B691360324B5B680E
:103890003B61FB68DB433A6913403B613B685B6813
:1038A00003F40033002B03D03A69FB6813433B61F8
:1038B000294A3B695360284B9B683B61FB68DB43AB
:1038C0003A6913403B613B685B6803F48013002B4B
:1038D00003D03A69FB6813433B611F4A3B6993601D
:1038E0001D4BDB683B61FB68DB433A6913403B617E
:1038F0003B685B6803F40013002B03D03A69FB6854
:1039000013433B61144A3B69D3607B6901337B619C
:103910003B681A687B6922FA03F3002B7FF488AEB8
:1039200000BF00BF1C37BD4680BC70470038024056
:10393000003801400000024000040240000802403C
:10394000000C024000100240001402400018024027
:10395000001C024000200240003C014080B483B0C3
:1039600000AF78600B467B8013467B707B78002B22
:1039700003D07A887B689A6103E07B881A047B68AD
:103980009A6100BF0C37BD4680BC704780B485B0DB
:1039900000AF78600B467B807B685B69FB607A8850
:1039A000FB6813401A04FB68D9437B880B401A4319
:1039B0007B689A6100BF1437BD4680BC704780B5F4
:1039C00084B000AF78607B689B6DFB60FFF756F8B2
:1039D000B8607B6893F83530DBB2022B08D07B6887
:1039E00080225A657B68002283F83420012352E04C
:1039F0007B681B681A687B681B6822F016021A60D5
:103A00007B681B685A697B681B6822F080025A61D8
:103A10007B681B6C002B03D17B689B6C002B07D051
:103A20007B681B681A687B681B6822F008021A60B2
:103A30007B681B681A687B681B6822F001021A60A9
:103A400013E0FFF71BF80246BB68D31A052B0CD90D
:103A50007B6820225A657B68032283F835207B68C7
:103A6000002283F83420032315E07B681B681B6861
:103A700003F00103002BE4D17B68DB6D3F229A4009
:103A8000FB689A607B68012283F835207B680022FE
:103A900083F83420002318461037BD4680BD80B41B
:103AA00083B000AF78607B6893F83530DBB2022BCF
:103AB00004D07B6880225A6501230CE07B680522D4
:103AC00083F835207B681B681A687B681B6822F0C6
:103AD00001021A60002318460C37BD4680BC7047AF
:103AE00080B582B000AF78607B68002B01D10123E4
:103AF00041E07B6893F83D30DBB2002B06D17B6858
:103B0000002283F83C20786800F039F87B680222B4
:103B100083F83D207B681A687B6804331946104699
:103B200000F0D0F97B68012283F846207B680122EF
:103B300083F83E207B68012283F83F207B680122C6
:103B400083F840207B68012283F841207B680122B2
:103B500083F842207B68012283F843207B6801229E
:103B600083F844207B68012283F845207B6801228A
:103B700083F83D20002318460837BD4680BD80B439
:103B800083B000AF786000BF0C37BD4680BC704783
:103B900080B485B000AF78607B6893F83D30DBB2CD
:103BA000012B01D001234EE07B68022283F83D20E7
:103BB0007B681B68DA687B681B6842F00102DA6088
:103BC0007B681B68224A934222D07B681B68B3F152
:103BD000804F1DD07B681B681E4A934218D07B68BB
:103BE0001B681D4A934213D07B681B681B4A934293
:103BF0000ED07B681B681A4A934209D07B681B6809
:103C0000184A934204D07B681B68174A934211D12B
:103C10007B681B689B6803F00703FB60FB68062B4F
:103C200010D07B681B681A687B681B6842F0010231
:103C30001A6007E07B681B681A687B681B6842F0A3
:103C400001021A60002318461437BD4680BC704735
:103C5000000001400004004000080040000C00404B
:103C600000040140004001400018004080B582B0CF
:103C700000AF78607B681B681B6903F00203022BAE
:103C800022D17B681B68DB6803F00203022B1BD187
:103C90007B681B686FF002021A617B6801221A7749
:103CA0007B681B689B6903F00303002B03D07868D3
:103CB00000F0EDF805E0786800F0E0F8786800F0D2
:103CC000EFF87B6800221A777B681B681B6903F09A
:103CD0000403042B22D17B681B68DB6803F0040318
:103CE000042B1BD17B681B686FF004021A617B6890
:103CF00002221A777B681B689B6903F44073002BD0
:103D000003D0786800F0C3F805E0786800F0B6F8F2
:103D1000786800F0C5F87B6800221A777B681B681A
:103D20001B6903F00803082B22D17B681B68DB6842
:103D300003F00803082B1BD17B681B686FF0080297
:103D40001A617B6804221A777B681B68DB6903F0C1
:103D50000303002B03D0786800F099F805E0786839
:103D600000F08CF8786800F09BF87B6800221A77E6
:103D70007B681B681B6903F01003102B22D17B6842
:103D80001B68DB6803F01003102B1BD17B681B68DA
:103D90006FF010021A617B6808221A777B681B6833
:103DA000DB6903F44073002B03D0786800F06FF8F0
:103DB00005E0786800F062F8786800F071F87B68D8
:103DC00000221A777B681B681B6903F00103012B33
:103DD0000ED17B681B68DB6803F00103012B07D160
:103DE0007B681B686FF001021A617868FCF7E0FCE1
:103DF0007B681B681B6903F08003802B0ED17B68F6
:103E00001B68DB6803F08003802B07D17B681B688D
:103E10006FF080021A61786800F0FBF87B681B681D
:103E20001B6903F04003402B0ED17B681B68DB68E5
:103E300003F04003402B07D17B681B686FF0400202
:103E40001A61786800F035F87B681B681B6903F01D
:103E50002003202B0ED17B681B68DB6803F0200356
:103E6000202B07D17B681B686FF020021A617868ED
:103E700000F0C6F800BF0837BD4680BD80B483B0EF
:103E800000AF786000BF0C37BD4680BC704780B47F
:103E900083B000AF786000BF0C37BD4680BC704770
:103EA00080B483B000AF786000BF0C37BD4680BCE3
:103EB000704780B483B000AF786000BF0C37BD4658
:103EC00080BC704780B485B000AF786039607B6893
:103ED0001B68FB607B683F4A934213D07B68B3F159
:103EE000804F0FD07B683C4A93420BD07B683B4AA3
:103EF000934207D07B683A4A934203D07B68394AA1
:103F0000934208D1FB6823F07003FB603B685B6859
:103F1000FA681343FB607B682E4A93422BD07B6880
:103F2000B3F1804F27D07B682B4A934223D07B6824
:103F30002A4A93421FD07B68294A93421BD07B6850
:103F4000284A934217D07B68274A934213D07B6854
:103F5000264A93420FD07B68254A93420BD07B6858
:103F6000244A934207D07B68234A934203D07B685C
:103F7000224A934208D1FB6823F44073FB603B68FC
:103F8000DB68FA681343FB60FB6823F080023B6840
:103F90005B691343FB607B68FA681A603B689A6848
:103FA0007B68DA623B681A687B689A627B68094AB8
:103FB000934203D07B680B4A934203D13B681A6952
:103FC0007B681A637B6801225A6100BF1437BD46C3
:103FD00080BC704700000140000400400008004021
:103FE000000C00400004014000400140004401403A
:103FF0000048014000180040001C00400020004024
:1040000080B483B000AF786000BF0C37BD4680BC81
:10401000704780B483B000AF786000BF0C37BD46F6
:1040200080BC704780B582B000AF78607B68002BA1
:1040300001D101233FE07B6893F83D30DBB2002BD8
:1040400006D17B68002283F83C207868FCF7DCFC12
:104050007B68242283F83D207B681B68DA687B68D4
:104060001B6822F40052DA60786800F087FC7B68F5
:104070001B681A697B681B6822F490421A617B688E
:104080001B685A697B681B6822F02A025A617B68A8
:104090001B68DA687B681B6842F40052DA607B6850
:1040A00000221A647B68202283F83D207B6820224E
:1040B00083F83E20002318460837BD4680BD80B5F2
:1040C0008AB002AFF860B9603B601346FB80002302
:1040D0007B61FB6893F83D30DBB2202B7CD1BB6861
:1040E000002B02D0FB88002B01D1012375E0FB6877
:1040F00093F83C30012B01D102236EE0FB680122D2
:1041000083F83C20FB6800221A64FB68212283F8B4
:104110003D20FEF7B3FC7861FB68FA889A84FB685F
:10412000FA88DA84FB689B68B3F5805F08D1FB6886
:104130001B69002B04D10023FB61BB68BB6103E05A
:10414000BB68FB610023BB61FB68002283F83C2055
:104150002AE03B6800937B6900228021F86800F028
:104160003AFA0346002B01D0032336E0FB69002B0B
:104170000BD1BB691B881A46FB681B68C2F3080297
:104180005A60BB690233BB6107E0FB691A78FB68C0
:104190001B685A60FB690133FB61FB68DB8C9BB2D7
:1041A000013B9AB2FB68DA84FB68DB8C9BB2002B84
:1041B000CFD13B6800937B6900224021F86800F072
:1041C0000AFA0346002B01D0032306E0FB682022F5
:1041D00083F83D20002300E0022318462037BD4627
:1041E00080BD80B584B000AFF860B9601346FB8035
:1041F000FB6893F83E30DBB2202B1DD1BB68002B4F
:1042000002D0FB88002B01D1012316E0FB6893F854
:104210003C30012B01D102230FE0FB68012283F81F
:104220003C20FB6800221A63FB881A46B968F868CC
:1042300000F01BFA034600E0022318461037BD4683
:1042400080BD000080B58AB000AF78607B681B68D5
:104250001B687B627B681B68DB683B627B681B6852
:104260005B69FB610023BB6100237B617B6A03F018
:104270000F03BB61BB69002B0DD17B6A03F02003E8
:10428000002B08D03B6A03F02003002B03D0786892
:1042900000F0CBFA7CE1BB69002B00F0B180FB6938
:1042A00003F00103002B05D13B6A03F49073002B4C
:1042B00000F0A6807B6A03F00103002B0AD03B6A62
:1042C00003F48073002B05D07B681B6C43F0010264
:1042D0007B681A647B6A03F00403002B0AD0FB6935
:1042E00003F00103002B05D07B681B6C43F0020236
:1042F0007B681A647B6A03F00203002B0AD0FB6917
:1043000003F00103002B05D07B681B6C43F0040213
:104310007B681A647B6A03F00803002B0FD03B6AAA
:1043200003F02003002B04D1FB6903F00103002BF1
:1043300005D07B681B6C43F008027B681A647B68BD
:104340001B6C002B00F01F817B6A03F02003002B05
:1043500007D03B6A03F02003002B02D0786800F0FE
:1043600064FA7B681B685B6903F04003402B0CBF59
:1043700001230023DBB27B617B681B6C03F0080325
:10438000002B02D17B69002B31D0786800F0A6F9B0
:104390007B681B685B6903F04003402B23D17B687B
:1043A0001B685A697B681B6822F040025A617B686F
:1043B0009B6B002B13D07B689B6B774A1A657B68DD
:1043C0009B6B1846FFF76BFB0346002B16D07B68F0
:1043D0009B6B1B6D7A68926B104698470EE078686D
:1043E00000F0E5F80AE0786800F0E1F806E07868A7
:1043F00000F0DDF87B6800221A64C4E000BFC2E070
:104400007B681B6B012B40F0A2807B6A03F01003DA
:10441000002B00F09C803B6A03F01003002B00F09F
:1044200096800023FB607B681B681B68FB607B68D1
:104430001B685B68FB60FB687B681B685B6903F05B
:104440004003402B4FD17B689B6B1B685B683B82B2
:104450003B8A002B00F099807B689B8D3A8A9A42B8
:1044600080F093807B683A8ADA857B689B6BDB6996
:10447000B3F5807F2BD07B681B68DA687B681B688C
:1044800022F48072DA607B681B685A697B681B685B
:1044900022F001025A617B681B685A697B681B68BD
:1044A00022F040025A617B68202283F83E207B681C
:1044B00000221A637B681B68DA687B681B6822F03D
:1044C0001002DA607B689B6B1846FFF778FA7B680E
:1044D0009A8D7B68DB8D9BB2D31A9BB219467868A4
:1044E00000F06EF851E07B689A8D7B68DB8D9BB2A3
:1044F000D31A7B827B68DB8D9BB2002B47D07B8AF3
:10450000002B44D07B681B68DA687B681B6822F448
:104510009072DA607B681B685A697B681B6822F0BE
:1045200001025A617B68202283F83E207B680022CA
:104530001A637B681B68DA687B681B6822F01002CC
:10454000DA607B8A1946786800F03AF81FE07B6AE7
:1045500003F08003002B08D03B6A03F08003002B9C
:1045600003D0786800F0FAF812E07B6A03F04003A9
:10457000002B0DD03B6A03F04003002B08D0786875
:1045800000F03BF904E000BF02E000BF00E000BF24
:104590002837BD4680BD00BF3547000880B483B0D2
:1045A00000AF786000BF0C37BD4680BC704780B458
:1045B00083B000AF786000BF0C37BD4680BC704749
:1045C00080B483B000AF78600B467B8000BF0C37AF
:1045D000BD4680BC704780B584B000AFF860B9605C
:1045E0003B601346FB712CE0BB69B3F1FF3F28D061
:1045F000BB69002B07D0FEF741FA02463B68D31A8D
:10460000BA699A421DD2FB681B68DA68FB681B68AE
:1046100022F4D072DA60FB681B685A69FB681B6879
:1046200022F001025A61FB68202283F83D20FB68DA
:10463000202283F83E20FB68002283F83C200323DD
:104640000FE0FB681B681A68BB681340BA689A429F
:104650000CBF01230023DBB21A46FB799A42C3D078
:10466000002318461037BD4680BD80B485B000AF2A
:10467000F860B9601346FB80FB68BA689A62FB6811
:10468000FA889A85FB68FA88DA85FB6800221A6442
:10469000FB68222283F83E20FB68002283F83C203E
:1046A000FB681B68DA68FB681B6842F48072DA609A
:1046B000FB681B685A69FB681B6842F001025A617B
:1046C000FB681B68DA68FB681B6842F02002DA604E
:1046D000002318461437BD4680BC704780B483B0B1
:1046E00000AF78607B681B68DA687B681B6822F41F
:1046F0009072DA607B681B685A697B681B6822F0DD
:1047000001025A617B681B6B012B07D17B681B6818
:10471000DA687B681B6822F01002DA607B6820226E
:1047200083F83E207B6800221A6300BF0C37BD4629
:1047300080BC704780B584B000AF78607B689B6BAD
:10474000FB60FB680022DA85FB680022DA84F868E7
:10475000FFF72DFF00BF1037BD4680BD80B485B088
:1047600000AF78607B6893F83D30DBB2212B3ED1FF
:104770007B689B68B3F5805F14D17B681B69002B55
:1047800010D17B681B6AFB60FB681B881A467B683C
:104790001B68C2F308025A607B681B6A9A1C7B681C
:1047A0001A6208E07B681B6A591C7A6811621A78E1
:1047B0007B681B685A607B68DB8C9BB2013B9BB2B9
:1047C0007A681946D184002B0FD17B681B68DA68A0
:1047D0007B681B6822F08002DA607B681B68DA68FD
:1047E0007B681B6842F04002DA60002300E002238D
:1047F00018461437BD4680BC704780B582B000AF04
:1048000078607B681B68DA687B681B6822F040026E
:10481000DA607B68202283F83D207868FFF7BEFECF
:10482000002318460837BD4680BD80B586B000AF6E
:1048300078607B6893F83E30DBB2222B40F09980A1
:104840007B689B68B3F5805F17D17B681B69002B81
:1048500013D100237B617B689B6A3B617B681B688B
:104860005B689BB2C3F308039AB23B691A807B680A
:104870009B6A9A1C7B689A6226E07B689B6A7B61D4
:1048800000233B617B689B68B3F5805F07D07B6842
:104890009B68002B0AD17B681B69002B06D17B68C3
:1048A0001B685B68DAB27B691A7008E07B681B687A
:1048B0005B68DBB203F07F03DAB27B691A707B6856
:1048C0009B6A5A1C7B689A627B68DB8D9BB2013BBA
:1048D0009BB27A681946D185002B48D17B681B684A
:1048E000DA687B681B6822F02002DA607B681B684C
:1048F000DA687B681B6822F48072DA607B681B6868
:104900005A697B681B6822F001025A617B68202289
:1049100083F83E207B681B6B012B23D17B68002230
:104920001A637B681B68DA687B681B6822F01002D8
:10493000DA607B681B681B6803F01003102B0AD138
:104940000023FB607B681B681B68FB607B681B683F
:104950005B68FB60FB687B689B8D19467868FFF796
:104960002FFE02E07868FBF7B3FF002302E000238C
:1049700000E0022318461837BD4680BD80B584B0DC
:1049800000AF78607B681B681B6923F440517B682B
:10499000DA687B681B680A431A617B689A687B68DF
:1049A0001B691A437B685B691A437B68DB691343A5
:1049B000BB607B681B68DB6823F4164323F00C03A1
:1049C0007A681268B9680B43D3607B681B685B69BF
:1049D00023F440717B689A697B681B680A435A61BB
:1049E0007B681B68574A934204D07B681B68564A11
:1049F000934203D1FEF7E2FCF86002E0FEF7BCFC54
:104A0000F8607B68DB69B3F5004F4CD1FA68134658
:104A10009B0013449A001A447B685B685B00B2FBFE
:104A2000F3F34A4AA2FB03235B091901FA68134610
:104A30009B0013449A001A447B685B685B00B2FBDE
:104A4000F3F2424BA3FB02035B09642000FB03F378
:104A5000D31ADB0032333D4AA2FB03235B095B0020
:104A600003F4F8731944FA6813469B0013449A0040
:104A70001A447B685B685B00B2FBF3F2334BA3FB29
:104A800002035B09642000FB03F3D31ADB0032331B
:104A90002E4AA2FB03235B0903F007027B681B6815
:104AA0000A449A604AE0FA6813469B0013449A004D
:104AB0001A447B685B689B00B2FBF3F3234AA2FBBA
:104AC00003235B091901FA6813469B0013449A00FB
:104AD0001A447B685B689B00B2FBF3F21B4BA3FBA1
:104AE00002035B09642000FB03F3D31A1B0132337A
:104AF000164AA2FB03235B0903F0F0031944FA688A
:104B000013469B0013449A001A447B685B689B0021
:104B1000B2FBF3F20D4BA3FB02035B09642000FB25
:104B200003F3D31A1B013233084AA2FB03235B09A8
:104B300003F00F027B681B680A449A6000BF1037BD
:104B4000BD4680BD00100140001401401F85EB519F
:104B500080B400AF00BFBD4680BC704780B483B056
:104B600000AF78607B6803F108027B685A607B685D
:104B70004FF0FF329A607B6803F108027B68DA60CD
:104B80007B6803F108027B681A617B6800221A6067
:104B900000BF0C37BD4680BC704780B483B000AF07
:104BA00078607B6800221A6100BF0C37BD4680BC6C
:104BB000704780B485B000AF786039607B685B680F
:104BC000FB603B68FA685A60FB689A683B689A60C9
:104BD000FB689B683A685A60FB683A689A603B6871
:104BE0007A681A617B681B685A1C7B681A6000BF70
:104BF0001437BD4680BC704780B485B000AF786084
:104C000039603B681B68BB60BB68B3F1FF3F03D1F1
:104C10007B681B69FB600CE07B680833FB6002E08B
:104C2000FB685B68FB60FB685B681B68BA689A425C
:104C3000F6D2FB685A683B685A603B685B683A6822
:104C40009A603B68FA689A60FB683A685A603B6809
:104C50007A681A617B681B685A1C7B681A6000BFFF
:104C60001437BD4680BC704780B485B000AF786013
:104C70007B681B69FB607B685B687A6892689A60F6
:104C80007B689B687A6852685A60FB685B687A68E0
:104C90009A4203D17B689A68FB685A607B6800225D
:104CA0001A61FB681B685A1EFB681A60FB681B6868
:104CB00018461437BD4680BC7047000080B584B0EC
:104CC00000AF786039607B68FB60FB68002B0AD11D
:104CD0004FF0500383F31188BFF36F8FBFF34F8FF3
:104CE000BB6000BFFEE703F049FCFB681A68FB6885
:104CF000DB6BF968096C01FB03F31A44FB685A602B
:104D0000FB6800229A63FB681A68FB689A60FB687C
:104D10001A68FB68DB6B013BF968096C01FB03F364
:104D20001A44FB68DA60FB68FF2283F84420FB68C2
:104D3000FF2283F845203B68002B14D1FB681B69D8
:104D4000002B1AD0FB681033184601F0E1FC034633
:104D5000002B12D00C4B4FF080521A60BFF34F8FD4
:104D6000BFF36F8F09E0FB6810331846FFF7F6FEBC
:104D7000FB6824331846FFF7F1FE03F02FFC0123F4
:104D800018461037BD4680BD04ED00E080B58EB0FA
:104D900002AFF860B9607A603B60FB68002B0AD113
:104DA0004FF0500383F31188BFF36F8FBFF34F8F22
:104DB000BB6200BFFEE73B68002B0AD14FF05003F7
:104DC00083F31188BFF36F8FBFF34F8F7B6200BFF8
:104DD000FEE77B68002B02D0BB68002B01D00123CB
:104DE00000E00023002B0AD14FF0500383F3118819
:104DF000BFF36F8FBFF34F8F3B6200BFFEE77B684F
:104E0000002B02D1BB68002B01D1012300E000235D
:104E1000002B0AD14FF0500383F31188BFF36F8F3B
:104E2000BFF34F8FFB6100BFFEE750237B617B69BF
:104E3000502B0AD04FF0500383F31188BFF36F8FCC
:104E4000BFF34F8FBB6100BFFEE73B68FB62FB6AAD
:104E5000002B0DD0FB6A012283F8462097F83820FA
:104E6000FB6A009313467A68B968F86800F043F863
:104E7000FB6A18463037BD4680BD80B58AB002AFA8
:104E8000F860B9601346FB71FB68002B0AD14FF044
:104E9000500383F31188BFF36F8FBFF34F8F3B61D4
:104EA00000BFFEE7BB68002B02D10023FB6104E0DA
:104EB000FB68BA6802FB03F3FB61FB6950331846D9
:104EC00003F096F8B861BB69002B0FD0BB69503373
:104ED0007B61BB69002283F84620FA79BB690093A5
:104EE00013467A69B968F86800F005F8BB69184696
:104EF0002037BD4680BD80B584B000AFF860B96092
:104F00007A60FB70BB68002B03D1BB69BA691A6079
:104F100002E0BB697A681A60BB69FA68DA63BB6948
:104F2000BA681A640121B869FFF7C8FEBB69FA784C
:104F300083F84C2000BF1037BD4680BD80B582B0DD
:104F400000AF78607B68002B0ED07B6800225A602F
:104F50007B6800221A607B680022DA60002300224E
:104F60000021786800F00CF900BF0837BD4680BD0D
:104F700080B586B000AF0346FB7101237B6100233F
:104F80003B61FB791A4639697869FFF776FFF8606B
:104F9000F868FFF7D3FFFB6818461837BD4680BD99
:104FA00080B588B002AF03463960FB7101237B6195
:104FB00000233B61FB7900933B68002239697869E3
:104FC000FFF7E4FEF860F868FFF7B8FFFB681846E3
:104FD0001837BD4680BD90B587B000AF78607B685C
:104FE0003B613B69002B0AD14FF0500383F31188DA
:104FF000BFF36F8FBFF34F8FFB6000BFFEE73B69CE
:105000005C6801F047FD03469C4211D13B69DB68B7
:105010005A1E3B69DA603B69DB68002B05D100232F
:1050200000220021386900F0ABF801237B6101E028
:1050300000237B617B6918461C37BD4690BD90B547
:1050400087B000AF786039607B683B613B69002BBB
:105050000AD14FF0500383F31188BFF36F8FBFF372
:105060004F8FFB6000BFFEE73B695C6801F012FDFB
:1050700003469C4207D13B69DB685A1C3B69DA60F6
:1050800001237B610CE03968386900F07DFB7861B1
:105090007B69002B04D03B69DB685A1C3B69DA60F2
:1050A0007B6918461C37BD4690BD80B58AB002AFFB
:1050B000F860B9607A60FB68002B0AD14FF05003AA
:1050C00083F31188BFF36F8FBFF34F8FBB6100BFB6
:1050D000FEE7BA68FB689A420AD94FF0500383F39F
:1050E0001188BFF36F8FBFF34F8F7B6100BFFEE767
:1050F000022300937B6800220021F868FFF746FE38
:10510000F861FB69002B02D0FB69BA689A63FB69FE
:1051100018462037BD4680BD80B586B000AF7860A8
:1051200039607B68002B0AD14FF0500383F311885C
:10513000BFF36F8FBFF34F8F3B6100BFFEE73A684D
:105140007B689A420AD94FF0500383F31188BFF36A
:105150006F8FBFF34F8FFB6000BFFEE7022200217D
:105160007868FFF78AFE78617B69002B02D07B6943
:105170003A689A637B6918461837BD4680BD0000BF
:1051800080B58EB000AFF860B9607A603B600023F4
:105190007B63FB683B633B6B002B0AD14FF05003F2
:1051A00083F31188BFF36F8FBFF34F8FBB6200BFD4
:1051B000FEE7BB68002B03D13B6B1B6C002B01D1BE
:1051C000012300E00023002B0AD14FF0500383F3AA
:1051D0001188BFF36F8FBFF34F8F7B6200BFFEE775
:1051E0003B68022B03D13B6BDB6B012B01D101230D
:1051F00000E00023002B0AD14FF0500383F3118805
:10520000BFF36F8FBFF34F8F3B6200BFFEE701F02C
:105210004FFC0346002B02D17B68002B01D10123F8
:1052200000E00023002B0AD14FF0500383F31188D4
:10523000BFF36F8FBFF34F8FFB6100BFFEE703F03B
:105240009DF93B6B9A6B3B6BDB6B9A4202D33B68DD
:10525000022B29D13A68B968386B00F05BFCF86220
:105260003B6B5B6A002B10D03B6B2433184601F07C
:105270004FFA0346002B13D03F4B4FF080521A6079
:10528000BFF34F8FBFF36F8F0AE0FB6A002B07D08D
:10529000394B4FF080521A60BFF34F8FBFF36F8FBF
:1052A00003F09CF9012363E07B68002B03D103F03A
:1052B00095F900235CE07B6B002B06D107F114030A
:1052C000184601F089FA01237B6303F087F900F0A7
:1052D000E9FF03F053F93B6B93F844305BB2B3F151
:1052E000FF3F03D13B6B002283F844203B6B93F8D4
:1052F00045305BB2B3F1FF3F03D13B6B002283F833
:10530000452003F06BF93A1D07F1140311461846C6
:1053100001F078FA0346002B24D1386B00F0F2FC40
:105320000346002B18D03B6B10337A6811461846A1
:1053300001F09EF9386B00F07DFC00F0C1FF0346E0
:10534000002B7FF47CAF0C4B4FF080521A60BFF300
:105350004F8FBFF36F8F72E7386B00F06BFC00F07C
:10536000AFFF6CE7386B00F065FC00F0A9FF00238D
:1053700018463837BD4680BD04ED00E080B58EB0DC
:1053800000AFF860B9607A603B60FB683B633B6BE1
:10539000002B0AD14FF0500383F31188BFF36F8FB6
:1053A000BFF34F8F7B6200BFFEE7BB68002B03D1CA
:1053B0003B6B1B6C002B01D1012300E00023002B71
:1053C0000AD14FF0500383F31188BFF36F8FBFF3FF
:1053D0004F8F3B6200BFFEE73B68022B03D13B6B64
:1053E000DB6B012B01D1012300E00023002B0AD14C
:1053F0004FF0500383F31188BFF36F8FBFF34F8FCC
:10540000FB6100BFFEE703F07BF9EFF311824FF081
:10541000500383F31188BFF36F8FBFF34F8FBA61CF
:105420007B61BB69FB623B6B9A6B3B6BDB6B9A42AC
:1054300002D33B68022B2CD13B6B93F8453087F8A5
:105440002B303A68B968386B00F064FB97F92B3061
:10545000B3F1FF3F12D13B6B5B6A002B16D03B6B65
:105460002433184601F054F90346002B0ED07B6814
:10547000002B0BD07B6801221A6007E097F82B30D5
:105480000133DBB25AB23B6B83F8452001237B63C7
:1054900001E000237B63FB6A3B613B6983F3118876
:1054A00000BF7B6B18463837BD4680BD80B58EB0D7
:1054B00000AF786039607B683B633B6B002B0AD19F
:1054C0004FF0500383F31188BFF36F8FBFF34F8FFB
:1054D0003B6200BFFEE73B6B1B6C002B0AD04FF01A
:1054E000500383F31188BFF36F8FBFF34F8FFB61BE
:1054F00000BFFEE73B6B1B68002B03D13B6B5B6877
:10550000002B01D1012300E00023002B0AD14FF032
:10551000500383F31188BFF36F8FBFF34F8FBB61CD
:1055200000BFFEE703F0ECF8EFF311824FF05003F9
:1055300083F31188BFF36F8FBFF34F8F7A613B61A5
:105540007B69FB623B6B9B6BBB623B6BDB6BBA6A41
:105550009A422BD23B6B93F8453087F82730BB6AD1
:105560005A1C3B6B9A6397F92730B3F1FF3F12D176
:105570003B6B5B6A002B16D03B6B2433184601F063
:10558000C7F80346002B0ED03B68002B0BD03B68BE
:1055900001221A6007E097F827300133DBB25AB2D4
:1055A0003B6B83F8452001237B6301E000237B6391
:1055B000FB6AFB60FB6883F3118800BF7B6B1846B6
:1055C0003837BD4680BD000080B58CB000AFF860B4
:1055D000B9607A600023FB62FB68BB62BB6A002B88
:1055E0000AD14FF0500383F31188BFF36F8FBFF3DD
:1055F0004F8F3B6200BFFEE7BB68002B03D1BB6A45
:105600001B6C002B01D1012300E00023002B0AD1E9
:105610004FF0500383F31188BFF36F8FBFF34F8FA9
:10562000FB6100BFFEE701F043FA0346002B02D105
:105630007B68002B01D1012300E00023002B0AD15D
:105640004FF0500383F31188BFF36F8FBFF34F8F79
:10565000BB6100BFFEE702F091FFBB6A9B6B7B6200
:105660007B6A002B1FD0B968B86A00F0BDFA7B6A6C
:105670005A1EBB6A9A63BB6A1B69002B0FD0BB6AB8
:105680001033184601F044F80346002B07D03D4B79
:105690004FF080521A60BFF34F8FBFF36F8F02F04D
:1056A0009DFF012369E07B68002B03D102F096FF88
:1056B000002362E0FB6A002B06D107F110031846B5
:1056C00001F08AF80123FB6202F088FF00F0EAFD96
:1056D00002F054FFBB6A93F844305BB2B3F1FF3F72
:1056E00003D1BB6A002283F84420BB6A93F845309B
:1056F0005BB2B3F1FF3F03D1BB6A002283F84520C0
:1057000002F06CFF3A1D07F110031146184601F034
:1057100079F80346002B23D1B86A00F0DDFA03467E
:10572000002B17D0BB6A24337A681146184600F064
:105730009FFFB86A00F07EFA00F0C2FD0346002B1E
:1057400089D1104B4FF080521A60BFF34F8FBFF3D7
:105750006F8F80E7B86A00F06DFA00F0B1FD7AE76C
:10576000B86A00F067FA00F0ABFDB86A00F0B4FA6E
:105770000346002B3FF46FAF002318463037BD4679
:1057800080BD00BF04ED00E080B58EB000AF786052
:10579000396000237B637B68FB6200233B63FB6A09
:1057A000002B0AD14FF0500383F31188BFF36F8FA2
:1057B000BFF34F8F3B6200BFFEE7FB6A1B6C002B01
:1057C0000AD04FF0500383F31188BFF36F8FBFF3FC
:1057D0004F8FFB6100BFFEE701F06AF90346002B23
:1057E00002D13B68002B01D1012300E00023002BF4
:1057F0000AD14FF0500383F31188BFF36F8FBFF3CB
:105800004F8FBB6100BFFEE702F0B8FEFB6A9B6BE7
:10581000BB62BB6A002B24D0BB6A5A1EFB6A9A6328
:10582000FB6A1B68002B04D101F0C2FA0246FB6A36
:105830005A60FB6A1B69002B0FD0FB6A10331846B5
:1058400000F066FF0346002B07D0544B4FF0805208
:105850001A60BFF34F8FBFF36F8F02F0BFFE0123BB
:1058600097E03B68002B11D13B6B002B0AD04FF027
:10587000500383F31188BFF36F8FBFF34F8F7B61AA
:1058800000BFFEE702F0AAFE002382E07B6B002B44
:1058900006D107F10C03184600F09EFF01237B633D
:1058A00002F09CFE00F0FEFC02F068FEFB6A93F83A
:1058B00044305BB2B3F1FF3F03D1FB6A002283F8AF
:1058C0004420FB6A93F845305BB2B3F1FF3F03D14C
:1058D000FB6A002283F8452002F080FE3A4607F179
:1058E0000C031146184600F08DFF0346002B32D101
:1058F000F86A00F0F1F90346002B26D0FB6A1B681A
:10590000002B09D102F03AFEFB6A5B68184601F0F1
:10591000EDF8386302F062FEFB6A24333A68114600
:10592000184600F0A5FEF86A00F084F900F0C8FC03
:105930000346002B7FF468AF184B4FF080521A607B
:10594000BFF34F8FBFF36F8F5EE7F86A00F072F915
:1059500000F0B6FC58E7F86A00F06CF900F0B0FC13
:10596000F86A00F0B9F90346002B3FF44DAF3B6BEA
:10597000002B0DD002F002FEF86A00F0B4F8786255
:10598000FB6A5B68796A184601F08CF902F026FE22
:10599000002318463837BD4680BD00BF04ED00E047
:1059A00080B58EB000AFF860B9607A60FB683B6389
:1059B0003B6B002B0AD14FF0500383F31188BFF3E8
:1059C0006F8FBFF34F8F3B6200BFFEE7BB68002BBA
:1059D00003D13B6B1B6C002B01D1012300E00023A2
:1059E000002B0AD14FF0500383F31188BFF36F8F60
:1059F000BFF34F8FFB6100BFFEE702F081FEEFF3C4
:105A000011824FF0500383F31188BFF36F8FBFF300
:105A10004F8FBA617B61BB69FB623B6B9B6BBB6267
:105A2000BB6A002B2FD03B6B93F8443087F82730AC
:105A3000B968386B00F0D8F8BB6A5A1E3B6B9A63A2
:105A400097F92730B3F1FF3F12D13B6B1B69002B55
:105A500016D03B6B1033184600F05AFE0346002B5D
:105A60000ED07B68002B0BD07B6801221A6007E008
:105A700097F827300133DBB25AB23B6B83F84420EE
:105A800001237B6301E000237B63FB6A3B613B698D
:105A900083F3118800BF7B6B18463837BD4680BD45
:105AA00080B584B000AF78607B68FB60FB68002B3A
:105AB0000AD14FF0500383F31188BFF36F8FBFF308
:105AC0004F8FBB6000BFFEE7F86800F05BF9FB6832
:105AD00093F84630002B02D1F86802F04DFB00BF6E
